:0400000040EF00F0DD
:10000800FACF2AF0FBCF2BF0E1CF2CF0E2CF2DF086
:10001800D9CF2EF0DACF2FF0F3CF30F0F4CF31F084
:1000280019EEBCF0F0B6F0A003D054EC3DF013D0BC
:10003800F0B8F0A203D051EC3DF00DD0F2BC9DA079
:1000480005D09EA003D09CEC3AF005D0F2B6F2A001
:1000580002D094EC3CF031C0F4FF30C0F3FF2FC065
:10006800DAFF2EC0D9FF2DC0E2FF2CC0E1FF2BC064
:10007800FBFF2AC0FAFF110016EEFEF02EEF2EF05D
:100088004BEC3DF0020103B15DEF05F06FC1D9FF04
:1000980070C1DAFFDF500301A26FA239E832070B03
:1000A800E80601E0C5D002011D5101E0C1D00101FF
:1000B80071050301A86F20D0010171516F2500015E
:1000C800E46F000E010170210001E56F0301A851E2
:1000D8000001E45D906FE551D8A0E505916F420EEF
:1000E800926F020E936F1AEC3AF0100E0301A86596
:1000F80002D0A85F01D0A86BA851DEE1420E010131
:10010800666F020E676F6FC168F170C169F1715156
:10011800FC0F6A6F01EC35F066C1ABF367C1ACF355
:1001280068C1ADF369C1AEF36FC16EF070C16FF015
:1001380071C170F03DEC37F06EC0A3F36FC0A4F34B
:1001480070C0A5F371C0A6F30301AB51A31909E16F
:10015800AC51A41906E1AD51A51903E1AE51A61998
:1001680011E0020102510F0B050A02E178EF3AF0A3
:1001780002510F0B030AD8A41200F151D8B412008F
:1001880078EF3AF0020102510F0B030A03E1E35141
:100198006AEC3BF06FC1AFF370C1B0F3030120EE1E
:1001A80007F0AF51D926B051DA22DECF1EF2DECFEA
:1001B8001FF2DECF20F2DECF21F220EE0CF0AF519D
:1001C800D926B051DA22DF500F0B8AEC36F0030142
:1001D80020EE0BF0AF51D926B051DA22DF38070BE9
:1001E8000001646F030120EE0BF0AF51D926B05126
:1001F800DA22DF500F0BDAEC3BF0AFC370F0B0C37C
:1002080071F001017151F7EC18F0AFC3A4F0B0C35D
:10021800A5F021EC30F0E66AE6EC23F00201066B6B
:10022800076B086B096B0A6B0B6B0C6B0D6B120081
:100238000301A239E832070B030A07E0A239E832C2
:10024800070B050A02E02EEF32F00201A76B6FC11F
:10025800B2F370C1B3F3020E121901E08BD103019E
:1002680020EE01F0B251D926B351DA2202016251CF
:10027800DE1809E16351DE1806E16451DE1803E176
:100288006551DE18D8A476D104A574D1B2C364F040
:10029800B3C365F056EC31F0000907E102010251E1
:1002A800F00B0909026F62EF32F0030120EE06F04D
:1002B800B251D926B351DA22DECFE4F0DDCFE5F032
:1002C800E4C06EF0E5C06FF00001706B716B010166
:1002D8007151FC0F0001726F490E736F010E746F3C
:1002E80082EC2DF0EF0E646F050E656FAF0E666F32
:1002F800010E676F696B100E686FD5EC34F0FF0E56
:10030800646F050E656F6FC166F070C167F0FC0E13
:10031800010171250001686F696BFF0E6923D5EC37
:1003280034F0660ECC6F020ECD6FAF0ECE6F010E9D
:10033800CF6FEF0ED06F050ED16F010171510C0F09
:100348000001D26F10EC0CF0AB0E646F030E656FFA
:10035800AF0E666F010E676F696B040E686FD5ECA0
:1003680034F06FC16EF070C16FF071C170F03DEC88
:1003780037F06EC0A3F36FC0A4F370C0A5F371C0CB
:10038800A6F30301A351AB1989E1A451AC1986E185
:10039800A551AD1983E1A651AE1980E120EE06F012
:1003A800B251D926B351DA2202010E51DE5C0F5147
:1003B800DE5835E3030120EE06F0B251D926B351D9
:1003C800DA22DECFE4F0DDCFE5F002010E510001C4
:1003D800E45F02010F510001E55BE45102019E5DFB
:1003E8000001E55102019F590EE20101725173119A
:1003F80001E154D70001646B656B666B050E676F8E
:1004080001D84CD7ADD0030120EE06F0B251D92661
:10041800B351DA22DECF0EF2DDCF0FF213D0030193
:1004280020EE06F0B251D926B351DA22DE50DE10A2
:10043800DCE102010E29D9E10F29D7E10E6B0F6B20
:10044800104B112B02010E2907E10F2905E1102994
:1004580003E1112901E1C9D702510F0B080A08E18C
:10046800E4516AEC3BF00201E5516AEC3BF007D03D
:1004780002510F0B030A03E1E5516AEC3BF0080E49
:1004880001016F27000E702371510001E46FE56BC5
:10049800030120EE05F0B251D926B351DA22DF501C
:1004A8000F0B0001E66FE76B0C0EE627000EE72343
:1004B800E451E61903E1E551E7193AE06FC1D9FFC4
:1004C80070C1DAFFDF500301A06F01016F4B702B81
:1004D8007151F40F0301B16F190EA76F6FC1A4F02A
:1004E80070C1A5F0B1050001A66F010EA76F0EC27D
:1004F800A8F00FC2A9F010C2AAF011C2ABF0760E94
:10050800AC6F020EAD6FA7C3AEF0EF0EAF6F050E66
:10051800B06F010EB16FC8EC20F0FF0E01016F251E
:100528000301A96FFF0E010170210301AA6F04D016
:100538000301B16BA96BAA6B02010383F00E0217CA
:1005480001017251731101E1A9D6A9C364F0AAC3CC
:1005580065F0B1C366F0010E0001676F01D89ED641
:100568000500FA6E01017251FD6E7351FE6EFF6A4D
:10057800FA501200030120EE01F0B251D926B3510E
:10058800DA2202011E51DE1809E11F51DE1806E1C8
:100598002051DE1803E12151DE1808E02EEC32F07C
:1005A800020E0201121901E179D61200030120EEB0
:1005B80006F0B251D926B351DA22DECFE4F0DDCF0E
:1005C800E5F0E4C06EF0E5C06FF00001706B716B90
:1005D80001017151FC0F0001726F490E736F746B4A
:1005E800010E82EC2DF0EF0E646F050E656FAF0EF5
:1005F800666F010E676F696B100E686FD5EC34F08B
:10060800FF0E646F050E656F6FC166F070C167F00D
:10061800FC0E010171250001686F696BFF0E6923EB
:10062800D5EC34F0220ECC6F020ECD6FAF0ECE6F2C
:10063800010ECF6FEF0ED06F050ED16F0101715112
:100648000C0F0001D26F10EC0CF0AB0E646F030EB0
:10065800656FAF0E666F010E676F696B040E686F8A
:10066800D5EC34F06FC16EF070C16FF071C170F0ED
:100678003DEC37F06EC0A3F36FC0A4F370C0A5F3D0
:1006880071C0A6F30301A351AB1909E1A451AC1938
:1006980006E1A551AD1903E1A651AE1903E02EEC10
:1006A80032F07ED720EE06F0B251D926B351DA22C5
:1006B80002010A51DE5C0B51DE5845E3030120EECE
:1006C80006F0B251D926B351DA22DECFE4F0DDCFFD
:1006D800E5F002010A510001E45F02010B5100013B
:1006E800E55BE45102019C5D0001E55102019D5961
:1006F8001EE20091F00E021701017251731114E00D
:100708000201009B000E0001646B656B666B676BF2
:1007180001D80AD00500FA6E01017251FD6E7351BD
:10072800FE6EFF6AFA5012000201039336D00301ED
:1007380020EE06F0B251D926B351DA22DECF0AF202
:10074800DDCF0BF221D0030120EE06F0B251D926FD
:10075800B351DA22DE50DE1014E102010A2911E158
:100768000B290FE1030120EE06F0B251D926B3514F
:10077800DA22DECF0AF2DDCF0BF202010C4B0D2B91
:1007880003D02EEC32F00CD702010A2909E10B291B
:1007980007E10C2905E10D2903E10483020E02D7C4
:1007A80002510F0B030A03E1E5516AEC3BF0010E1D
:1007B8000201D86FB2C364F0B3C365F0F1EC33F053
:1007C800030120EE05F0B251D926B351DA22DF50E9
:1007D8000F0B1BE0080EB22500017A6F000E030113
:1007E800B32100017B6F030120EE05F0B251D92639
:1007F800B351DA22DF500F0B00017C6F08EC17F0C1
:100808007AC06FF17BC070F105D0080E01016F2727
:10081800000E7023010171510001E46FE56B0301C3
:1008280020EE05F0B251D926B351DA22DF500F0B72
:100838000001E66FE76B0C0EE627000EE723E45194
:10084800E61904E1E551E71901E19BD06FC1D9FF31
:1008580070C1DAFFDF500301A06F01016F4B702BED
:10086800030120EE05F0B251D926B351DA22DF5048
:100878000F0B0001E46FE4510101715DF40F0301F6
:10088800B16F20EE05F0B251D926B351DA22DF500C
:100898000F0B190FA76FA05129E06FC1A4F070C109
:1008A800A5F0B1050001A66F010EA76F0AC2A8F056
:1008B8000BC2A9F00CC2AAF00DC2ABF0320EAC6F9D
:1008C800020EAD6FA7C3AEF0EF0EAF6F050EB06F9F
:1008D800B16BC8EC20F0FF0E01016F250301A96F71
:1008E800FF0E010170210301AA6F4FD00101715160
:1008F8000001E46FE56B030120EE05F0B251D92643
:10090800B351DA22DF500F0B0001E66FE76B0D0ED3
:10091800E627000EE723E451E65DE751800AE86F19
:10092800E551800AE8592DE26FC1A4F070C1A5F025
:100938000301B1050001A66F010EA76F0AC2A8F056
:100948000BC2A9F00CC2AAF00DC2ABF0220EAC6F1C
:10095800020EAD6FA7C3AEF0EF0EAF6F050EB06F0E
:10096800B16BC8EC20F06FC17AF070C17BF0030165
:10097800B10500017C6F08EC17F07AC06FF17BC0FD
:1009880070F10301B16BA96BAA6B010E0201D86F5C
:10099800D06BD16BEE6B0099038300A14FD003019C
:1009A80020EE05F0B251D926B351DA22DFAA43D09E
:1009B80002010091F00E021701017251731117E044
:1009C8000201009BA9C364F0AAC365F0B1C366F035
:1009D800010E0001676F01D80AD00500FA6E010107
:1009E8007251FD6E7351FE6EFF6AFA5012000201D9
:1009F800039302BB00BBD4D500B302D000A7D0D567
:100A0800010E0001796FA10E7A6F030E7B6F020150
:100A1800ED51DBEC28F000090BE1000E01016B6FD2
:100A28006C6F6D6F6E6F5AEC2BF002010097B8D5A2
:100A3800B5EC22F0B5D5C4EC31F0B2D5F00E021702
:100A480001017251731117E00201009BA9C364F000
:100A5800AAC365F0B1C366F0010E0001676F01D843
:100A68000AD00500FA6E01017251FD6E7351FE6ED7
:100A7800FF6AFA501200020102BB00BB91D500B315
:100A880002D000A78DD5010E0001796FA10E7A6FF3
:100A9800030E7B6F0201ED51DBEC28F00009C8E181
:100AA800000E01016B6F6C6F6D6F6E6F5AEC2BF05F
:100AB800BCD7010172517311D8B4120048EC3DF053
:100AC8000001E46FE4B712D06FC164F070C165F043
:100AD80071C166F0030E676F0500FA6E010172516D
:100AE800FD6E7351FE6EFF6AFA5012006FC164F01A
:100AF80070C165F071C166F0020E676F0500FA6E8D
:100B080001017251FD6E7351FE6EFF6AFA501200B8
:100B1800020103B1AAEF09F00001C46BC56BC66BF3
:100B2800C76BC86BCD69CE69CF69D0690201F16B1B
:100B38000251F00B0209026FDAC2D1F000A510D100
:100B48003F0E1725F66EF76AFE0EF722F86A000EBA
:100B5800F8220800F5CFA2F098510001A225A36F52
:100B6800000EA2BFFF0E020199210001A46FA56B20
:100B7800A66B0C0ED890A337A437A537A637E82E56
:100B8800F9D7A3C064F0A4C065F0A5C066F0A6C0FC
:100B980067F07D0E686F696B6A6B6B6B1BEC31F0ED
:100BA80064C071F065C072F066C073F067C074F01D
:100BB8000201E2515EEC37F03F0E02011C25F66E91
:100BC800F76AFE0EF722F86A000EF8220800F5CF41
:100BD800A2F09A510001A225A36F000EA2BFFF0E3A
:100BE80002019B210001A46FA56BA66B0C0ED89087
:100BF800A337A437A537A637E82EF9D7A3C064F0E2
:100C0800A4C065F0A5C066F0A6C067F07D0E686F49
:100C1800696B6A6B6B6B1BEC31F064C071F065C07B
:100C280072F066C073F067C074F00201E3515EECC5
:100C380037F00201E25159EC2FF00201E35159EC6F
:100C48002FF0A0C0A2F0A1C0A3F00201DB51000167
:100C5800A46F0201DC510001A56FA66BA76BD60E2D
:100C6800A403F3CFA8F0F4CFA9F0AA6BAB6BA5034C
:100C7800F350A927F450AA23000EAB230B0EA403AC
:100C8800F350A927F450AA23000EAB23D60EA603CF
:100C9800F350AA27F450AB230B0EA503F350AA2751
:100CA800F450AB23000EA403F350AA27F450AB234F
:100CB800D60EA703F350AB270B0EA603F350AB27B2
:100CC800000EA503F350AB27000EA403F350AB2787
:100CD800FF0EA825AC6FFF0EA921AD6FFF0EAA214C
:100CE800AE6FFF0EAB21AF6FAC51A203F3CFB0F0E4
:100CF800F4CFB1F0B26BB36BA303F350B127F45048
:100D0800B223000EB323AD51A203F350B127F45020
:100D1800B223000EB323AD51A303F350B227F4500E
:100D2800B323AE51A203F350B227F450B323AE510C
:100D3800A303F350B327AF51A203F350B327D15104
:100D48000E0D080EF324D96E040EF420DA6EB0C02E
:100D5800DEFFB1C0DEFFB2C0DEFFB3C0DEFF1DD1D3
:100D68003F0E1725F66EF76AFE0EF722F86A000E98
:100D7800F8220800F5CFA2F094510001A225A36F34
:100D8800000EA2BFFF0E020195210001A46FA56B02
:100D9800A66B0C0ED890A337A437A537A637E82E34
:100DA800F9D7A3C064F0A4C065F0A5C066F0A6C0DA
:100DB80067F07D0E686F696B6A6B6B6B1BEC31F0CB
:100DC80064C071F065C072F066C073F067C074F0FB
:100DD8000201E4515EEC37F03F0E02011C25F66E6D
:100DE800F76AFE0EF722F86A000EF8220800F5CF1F
:100DF800A2F096510001A225A36F000EA2BFFF0E1C
:100E0800020197210001A46FA56BA66B0C0ED89068
:100E1800A337A437A537A637E82EF9D7A3C064F0BF
:100E2800A4C065F0A5C066F0A6C067F07D0E686F27
:100E3800696B6A6B6B6B1BEC31F064C071F065C059
:100E480072F066C073F067C074F00201E5515EECA1
:100E580037F00201E45159EC2FF00201125103E17D
:100E6800E55159EC2FF0A0C0A2F0A1C0A3F022EEEA
:100E7800DBF0DECFA4F0DDCFA5F00001D1510E0DDF
:100E8800060EF324D96E040EF420DA6EDECFA6F037
:100E9800DDCFA7F0A651A86FA751A96FAA6BAB6BBE
:100EA800A829AC6F000EA921AD6F000EAA21AE6F64
:100EB800000EAB21AF6FAC51A403F3CFB0F0F4CF69
:100EC800B1F0B26BB36BA503F350B127F450B22362
:100ED800000EB323AD51A403F350B127F450B2234D
:100EE800000EB323AD51A503F350B227F450B3233A
:100EF800AE51A403F350B227F450B323AE51A50367
:100F0800F350B327AF51A403F350B327FF0EB02516
:100F1800B46FFF0EB121B56FFF0EB221B66FFF0E91
:100F2800B321B76FB451A203F3CFB8F0F4CFB9F03F
:100F3800BA6BBB6BA303F350B927F450BA23000E66
:100F4800BB23B551A203F350B927F450BA23000EBE
:100F5800BB23B551A303F350BA27F450BB23B651B2
:100F6800A203F350BA27F450BB23B651A303F3509E
:100F7800BB27B751A203F350BB27D1510E0D080E62
:100F8800F324D96E040EF420DA6EB8C0DEFFB9C0BF
:100F9800DEFFBAC0DEFFBBC0DEFF0201E951F1ECA3
:100FA8003AF0000901E1C8D00201E9516AEC3BF0CE
:100FB8000201E9517FEC37F08DC0C9F08EC0CAF04C
:100FC8008FC0CBF090C0CCF0CC5107E11F0EC95DAB
:100FD800AC0ECA59DF0ECB594AE3C9C0A2F0CAC049
:100FE800A3F0CBC0A4F0CCC0A5F00D0E05D0D890CE
:100FF800A533A433A333A233E82EF9D77D0EA20379
:10100800F3CFA6F0F4CFA7F0A86BA96BA303F35016
:10101800A727F450A823000EA923A203F350A7275B
:10102800F450A823000EA9237D0EA403F350A8278B
:10103800F450A923000EA303F350A827F450A923C2
:10104800000EA203F350A827F450A9237D0EA50390
:10105800F350A927000EA403F350A927000EA303F9
:10106800F350A927000EA203F350A92749D0C9C0FD
:10107800A2F0CAC0A3F0CBC0A4F0CCC0A5F07D0EEE
:10108800A203F3CFA6F0F4CFA7F0A86BA96BA30334
:10109800F350A727F450A823000EA923A203F35066
:1010A800A727F450A823000EA9237D0EA403F3500C
:1010B800A827F450A923000EA303F350A827F4503F
:1010C800A923000EA203F350A827F450A9237D0EEC
:1010D800A503F350A927000EA403F350A927000E77
:1010E800A303F350A927000EA203F350A9270D0E5E
:1010F80005D0D890A933A833A733A633E82EF9D75B
:10110800A6C0BCF0A7C0BDF0A8C0BEF0A9C0BFF083
:10111800BC510201C85D0001C56FBD510201C9592A
:101128000001C66FBE510201CA590001C76FBF5105
:101138000201CB590001C86FD16BD1510E0D040EBD
:10114800F324D96E040EF420DA6EDE0401E08ED0AA
:10115800D1510E0D080EF324D96E040EF420DA6E68
:10116800DE50DE10DE10DE1001E180D0D151020128
:10117800DA194BE00001D1510E0D080EF324D96E97
:10118800040EF420DA6EDE50C55DDE50C659DE501E
:10119800C759DE50C8592DE2D1510E0D080EF3245F
:1011A800D96E040EF420DA6EDECFA2F0DECFA3F003
:1011B800DECFA4F0DECFA5F0C551A25DA66FC65163
:1011C800A359A76FC751A459A86FC851A559A96FAA
:1011D800D1510E0D080EF324D96E040EF420DA6EE8
:1011E800A6C0DEFFA7C0DEFFA8C0DEFFA9C0DEFFE5
:1011F8000CD0D1510E0D080EF324D96E040EF42034
:10120800DA6EDE6ADE6ADE6ADD6A0001D1510E0D31
:10121800080EF324D96E040EF420DA6EDE50CD5D8C
:10122800DE50CE59DE50CF59DE50D0591FE3D15190
:101238000E0D080EF324D96E040EF420DA6EDE507B
:10124800DE10DE10DE1012E0D1510E0D080EF32470
:10125800D96E040EF420DA6EDECFCDF0DECFCEF0FC
:10126800DECFCFF0DECFD0F0010EC46FD12B0F0E42
:10127800D16563D7C4055FE1CDC0C8F2CEC0C9F25D
:10128800CFC0CAF2D0C0CBF2D05106E1CD29FF0EB3
:10129800CE590F0ECF5918E3CDC064F0CEC065F01B
:1012A800CFC066F0D0C067F07D0E686F696B6A6B5F
:1012B8006B6B1BEC31F00C0ED890643765376637D2
:1012C8006737E82EF9D71FD0CDC0A2F0CEC0A3F063
:1012D800CFC0A4F0D0C0A5F00C0ED890A237A33789
:1012E800A437A537E82EF9D7A2C064F0A3C065F0EB
:1012F800A4C066F0A5C067F07D0E686F696B6A6B65
:101308006B6B1BEC31F064C0C0F065C0C1F066C007
:10131800C2F067C0C3F0C0C071F0C1C072F0C2C0F3
:1013280073F0C3C074F00201E9515EEC37F00201BA
:10133800E95159EC2FF0020E02011219D8A412003B
:101348000251F00B0809026F62EF32F048EC3DF0F1
:101358000001A26FA2A90FD0646B656B666B020EC9
:10136800676F0500FA6E01017251FD6E7351FE6ED2
:10137800FF6AFA501200010172517311D8B41200B9
:101388000001646B656B666B030E676F0500FA6E90
:1013980001017251FD6E7351FE6EFF6AFA50120020
:1013A80091C169F0000E6A6FB9EC29F079C171F04A
:1013B8007AC172F07BC173F07CC174F04BEC29F0F8
:1013C800010194518DEC2AF00101910501E0B6D19B
:1013D80087C166F0390E3DEC3BF09BC17FF0010EF2
:1013E80000017F170101D8909A350001806F010133
:1013F8009339F00B000180117F11666F1D0E3DECD3
:101408003BF07EC07FF0030E00017F1795C180F08E
:10141800010E8017D8908037D89080370101923913
:10142800F00B000180117F11666F1E0E3DEC3BF042
:1014380001019751981160E097C182F098C183F03B
:101448000001846B856B42D082C064F083C065F074
:1014580084C066F085C067F07D0E0001686F696B17
:101468006A6B6B6B9DEC2FF022D082C064F083C056
:1014780065F084C066F085C067F0FA0E0001686FF9
:10148800696B6A6B6B6B9DEC2FF011D082C064F0B6
:1014980083C065F084C066F085C067F0F40E000173
:1014A800686F010E696F6A6B6B6B9DEC2FF064C0FF
:1014B80082F065C083F066C084F067C085F00FD005
:1014C8000001826B836B846B856B09D0010193519A
:1014D800070ABAE00F0AC9E0010AD8E0F1D701010A
:1014E800922900017F6F05D0D890853384338333E8
:1014F80082337F2FF9D705D00001826B836B846B11
:10150800856B82C066F0240E3DEC3BF07DC066F032
:101518001F0E3DEC3BF0260E41EC3AF0866F0C0EA8
:101528000101921906E1070E931909E0080E9319B3
:1015380006E00B0E921906E1070E931903E100016C
:10154800868702D000018697868586C066F0260EBB
:101558003DEC3BF0310E41EC3AF0866FF80E861701
:10156800030E861386C066F0310E3DEC3BF00A0E82
:101578000001666F370E3DEC3BF0120E0101AA190F
:1015880029E1070E931903E0080E931915E1310EAE
:1015980041EC3AF0866F869F86C066F0310E3DECCE
:1015A8003BF0400E0001666F2F0E3DEC3BF0000152
:1015B800666B300E3DEC3BF0090E010193190AE110
:1015C800310E41EC3AF0866F868F86C066F0310E98
:1015D8003DEC3BF0330E41EC3AF0866F869D8681F8
:1015E80099C17FF0010E7F17060E806FD8907F3764
:1015F800802FFCD77F51861386C066F0330E3DECF2
:101608003BF099C17FF0010E00017F17D8907F371A
:10161800D8907F35FF0A1D0B866F86C066F03B0E9B
:101628003DEC3BF0010186510001666F200E3DEC58
:101638003BF085C166F0210E3DEC3BF00001666B86
:101648000D0E3DEC3BF00001666B0E0E3DEC3BF0E1
:101658000001666B0F0E3DEC3BF0120E0101AA195A
:1016680068E1090E93191EE1800E795D130E7A590F
:10167800610E7B59330E7C5915E37905F70E7A59BB
:10168800CB0E7B593C0E7C590DE2020E0001666FB1
:10169800360E3DEC3BF0640E0001666F3A0E3DECF1
:1016A8003BF028D0090E93191FE1800E795D1A0EC0
:1016B8007A59700E7B59180E7C5916E3410E795DE4
:1016C800DD0E7A594A0E7B591F0E7C590DE2020E27
:1016D8000001666F360E3DEC3BF07F0E0001666F31
:1016E8003A0E3DEC3BF006D0030E0001666F360E55
:1016F8003DEC3BF0090E010193190FE199050DE14D
:10170800650E0001666F3A0E3DEC3BF0190E0001C4
:10171800666F3B0E3DEC3BF00CD0650E0001666F2A
:101728003A0E3DEC3BF01D0E0001666F3B0E3DECA2
:101738003BF000016669120E3DEF3BF07DC171F090
:101748007EC172F07FC173F080C174F02DEC33F06C
:1017580081C171F082C172F083C173F084C174F0E9
:101768005FEC33F0010186510001666F250E3DECF8
:101778003BF085C166F0260E3DEC3BF00A0E41ECCD
:101788003AF0866F9F0E86170101AC39E846E00BE8
:101798000001861386C066F00A0E3DEC3BF0C80EC9
:1017A8000001866F0101955102E00001868986C01B
:1017B80066F0300E3DEC3BF00001816B0ED0880ED8
:1017C8008125D96EDA6A010EDA22DF50666F8151FF
:1017D800280F3DEC3BF00001812B010190510001E5
:1017E800815DEDE30101905108E0900510090001C9
:1017F800666F270E3DEC3BF005D00001666B270EA7
:101808003DEC3BF0000166693E0E3DEC3BF000010B
:1018180066693F0E3DEF3BF00101656B646B626BDF
:10182800606B616BCCC0A4F0CDC0A5F0100E0001B8
:10183800A66F010EA76F000EA86F010EA96F88ECA6
:1018480025F0D251D36FD46B0F0ED327000ED423BB
:10185800040ED56FD435D433D333D52FFBD7D3511A
:101868000101636F635104E1010E636F626B0AD07B
:10187800D2C0D3F00F0E0001D317010ED8A4000E6A
:101888000101626F620541E1646B6351100DF35011
:10189800F00F656F1ED0200E01016425D96EDA6A3B
:1018A800010EDA22100E6425E96EEA6A010EEA22B8
:1018B800EF500001D36F010165510001D025E96E99
:1018C800000ED121EA6EEF50D319DF6E0101642BAF
:1018D800652B63510001D36FD46BD33BD43BF00E1F
:1018E800D417D3510F0BD413F00ED3170101655140
:1018F8000001D56FD66BD351D55DD651800AD76F0D
:10190800D451800AD75963E2C6D70001D251D025F5
:10191800D36F000ED121D46FD2510F0BD35D0101CB
:10192800606F0001D451D8A0D4050101616F656BC7
:101938000001D2510F0B010165610FD0655160257F
:10194800D96E000E6121DA6E300E6525E96EEA6AFD
:10195800010EEA22DFCFEFFF16D00001D2510F0BA4
:101968000101651909E1300E6525D96EDA6A010EA3
:10197800DA22800EDF6E07D0300E6525D96EDA6A5E
:10198800010EDA22DF6A652B0F0E6565D1D7656B0C
:10199800200E6525D96EDA6A010EDA22000E652559
:1019A800E96EEA6A010EEA22EF500001D36F300EA9
:1019B80001016525E96EEA6A010EEA22EF5000018D
:1019C800D319DF6E0101652B0F0E6565E1D7500E47
:1019D8000001646F010E656F676B666B696B100EB3
:1019E800686FF1EC39F00101656B51D00101646B4E
:1019F800400E6425D96EDA6A010EDA2265510001BB
:101A0800D36FD46BD33BD43BF00ED417D3510F0B09
:101A1800D413F00ED317D0C0D5F0D1C0D6F0D3511F
:101A2800D527D451D623010164510001D525E96E8B
:101A3800000ED621EA6EEF50D76F500E01016425D3
:101A4800E96EEA6A010EEA22EF500001D719DF6E4B
:101A58000101642B0F0E6465CBD7500E0001646F33
:101A6800010E656F400E666F010E676F696B100E91
:101A7800686FD5EC34F0500E906F010E916FCCC0AA
:101A880092F0CDC093F01AEC3AF00101652B0001F9
:101A9800D369D469010163510001D56FD66BD35165
:101AA800D527D451D623010165510001D76FD86BD2
:101AB800D551D75DD851800AD96FD651800AD959E6
:101AC80095E30101656B400E6525D96EDA6A010E52
:101AD800DA22200E6525E96EEA6A010EEA22EF5045
:101AE8000001D36F500E01016525E96EEA6A010E07
:101AF800EA22EF500001D319DF6E0101652B0F0EAA
:101B08006565E1D7400E0001906F010E916FCCC062
:101B180092F0CDC093F01AEC3AF0CEC064F0CFC08A
:101B280065F0400E666F010E676F696B100E686F87
:101B3800D5EF34F0DC6F100E0001E06FDF6BDD0EC7
:101B4800646F656B676B666B696B010E686FF1ECB0
:101B580039F0E00E646F040E656F676B666B010EFB
:101B6800696F0F0E686FF1EC39F0AF0E646F010EFC
:101B7800656F676B666B696B100E686FF1EC39F017
:101B8800DC0507E1DD511F0B8009DD6F02010081D3
:101B980004D0DD511F0B4009DD6FFC0E0001DD177D
:101BA800E30EDD17E00EE025D96EDA6A040EDA22BC
:101BB800DDC0DFFFE02BE00EE025646F656B040EEF
:101BC80065231E0E666F020E676F696B040E686FE1
:101BD800D5EC34F0040EE027DE6B020102AD30D004
:101BE8000001DE8F0201DF51EB5D29E20001DE8D8D
:101BF80002010089D04BD12BA251D019D11102E199
:101C0800EE6B1AD0A2510001DA6FDB6B0201D051E2
:101C18000001DA5D0201D1510001DB590EE2020137
:101C2800EE2BEE51A35D0CE2EE6BDBEC2DF0000920
:101C380007E10201D06BD16B0001DE9D0201009922
:101C4800020100A304D00001DE8B02010093000111
:101C5800DE990201A75104E0010169516A1104E10A
:101C6800F00E0001DE1707D0BCEC2BF0DA6FDE199E
:101C7800F00BDA19DE6FE00EE025D96EDA6A040E91
:101C8800DA22DEC0DFFFE02BE00EE025646F656B33
:101C9800040E6523060E666F020E676F696B020EEF
:101CA800686FD5EC34F0020EE0270201A7510FE06F
:101CB800010169516A110BE0E00E0001646F040E26
:101CC800656FE00E666F010E676F1DEC0FF0E00E9A
:101CD8000001E025D96EDA6A040EDA2266C1DFFF58
:101CE800E02B010169516A1131E0E00E0001E025A5
:101CF800646F656B040E652367C166F068C167F0A1
:101D080069C168F06AC169F0D5EC34F067C1A4F024
:101D180068C1A5F069C1A6F0A76B06C2A8F007C202
:101D2800A9F008C2AAF009C2ABF0320EAC6F020EDD
:101D3800AD6FE0C0AEF0E00EAF6F040EB06FB16BE8
:101D4800C8EC20F00101695100012AD00201A75115
:101D580028E0EF0E0001646F050E656FDF0E666FF9
:101D6800676B1DEC0FF0EF0EA46F050EA56FDFC0BB
:101D7800A6F0A76B06C2A8F007C2A9F008C2AAF08D
:101D880009C2ABF0220EAC6F020EAD6FE0C0AEF030
:101D9800E00EAF6F040EB06FB16BC8EC20F0DF51EE
:101DA800E02706C26EF007C26FF008C270F009C2E1
:101DB80071F00001E051F00F726F490E736F000E61
:101DC800746B82EC2DF0E00E646F040E656FAF0E3D
:101DD800666F010E676F696B100E686FD5EC34F093
:101DE800220ECC6F020ECD6FAF0ECE6F010ECF6FED
:101DF800E00ED06F040ED16FE0C0D2F010EC0CF002
:101E0800E00EE025646F656B040E6523AF0E666F08
:101E1800010E676F696B040E686FD5EC34F0040E21
:101E2800E027F00EE0250201D46FD56BFF0ED52315
:101E3800FF0C6651D96EDA6ADF506F6F6E6B69D12D
:101E4800675101E14BD16E51020DA80EF324D96EF2
:101E5800020EF420DA6EDE2801E140D1FE0E686F32
:101E680069696E51020DA80EF324D96E020EF42092
:101E7800DA6EDF506A6F6B6B68516A2769516B23A2
:101E8800560E6A25F66EFE0E6B21F76EF86A000E86
:101E9800F8220800F5506FC06CF06D6B6C27000ECF
:101EA8006D236651D96EDA6ADF506C5F000E6D5B88
:101EB8006DBF14D16D5105E1100E6C5D01E32FD19A
:101EC8000DD12DD16F516425D96E000E6521DA6EC2
:101ED800030EDF6E6F2B6F516425D96E000E6521DE
:101EE800DA6EDF6A6E51020DA90EF324D96E020E66
:101EF800F420DA6EDFA009D000016F516425D96E95
:101F0800000E6521DA6E000EDB8000016E51020DB5
:101F1800A90EF324D96E020EF420DA6EDFA208D0DF
:101F28006F516425D96E000E6521DA6E000EDB82D2
:101F380000016E51020DA90EF324D96E020EF42091
:101F4800DA6EDFA409D000016F516425D96E000E46
:101F58006521DA6E000EDB8400016F2BD9D06F513A
:101F68006425D96E000E6521DA6E050EDF6E6F2BC3
:101F78006F516425D96E000E6521DA6EDF6A6E51E5
:101F8800020DA90EF324D96E020EF420DA6EDFA634
:101F980009D000016F516425D96E000E6521DA6EF3
:101FA800000EDB8000016E51020DA90EF324D96EDC
:101FB800020EF420DA6EDFA808D06F516425D96EBE
:101FC800000E6521DA6E000EDB8200016E51020DF3
:101FD800A90EF324D96E020EF420DA6EDFAABCD75C
:101FE800B2D76F516425D96E000E6521DA6E060EE0
:101FF800DF6E6F2B6F516425D96E000E6521DA6E86
:10200800E0C2DFFF6F2B45EC3DF0800AA00F05E32F
:1020180045EC3DF0800A600F09E300016F5164252B
:10202800D96E000E6521DA6E200E0AD000016F51BC
:102038006425D96E000E6521DA6E45EC3DF03F0B44
:10204800DF6E8AD76F516425D96E000E6521DA6E6E
:10205800070EDF6E6F2B6F516425D96E000E652158
:10206800DA6EDF6A6E51020DA90EF324D96E020EE4
:10207800F420DA6EDFAE09D000016F516425D96E05
:10208800000E6521DA6E000EDB8000016E51020D34
:10209800A90EF324D96E020EF420DA6EDFAC5CD7F9
:1020A8006F516425D96E000E6521DA6E000EDB8251
:1020B80053D70201DD69DE6B00016E51020DA80ED7
:1020C800F324D96E020EF420DA6E6F516425E96E9E
:1020D800000E6521EA6EDFCFEFFF3ED76E51020D8D
:1020E800A80EF324D96E020EF420DA6EDF50020A2D
:1020F800E0E0010A01E1E6D6070ADEE0010A01E1B3
:102108002ED7030A01E16DD7010A9CE00F0AD4E03B
:102118006E2B0201A75100016E5D01E291D6665156
:10212800D96EDA6A6FC0DFFF12008F6B6C518F2592
:10213800D96EDA6A8F51750FE96EEA6ADFCFEFFF61
:102148008F2B0F0E8F65F2D70A0E476E010E466E63
:102158008F6B8F51750FD96EDA6ADF506D6F8F51A3
:102168006A25D96E000E6B21DA6E6D51DF1A8F2B3E
:102178000F0E8F65EED78F6B8F516A25D96E000EC3
:102188006B21DA6EDF506D6F6E6B250E6D25F66E66
:10219800FD0E6E21F76EF86A000EF8228F516A253F
:1021A800D96E000E6B21DA6E0800F5CFDFFF8F2B9A
:1021B8000F0E8F65E1D76AC064F06BC065F0BCECA8
:1021C8001EF0470401E111D18F6B8F516A256D6FA5
:1021D800000E6B216E6F6D29D96E000E6E21DA6EBE
:1021E800DF506F6F8F516A25D96E000E6B21DA6E42
:1021F800DF506F198D6F8F516A256D6F000E6B213F
:102208006E6F030E6D25D96E000E6E21DA6EDF50EB
:102218006F6F8F516A25706F000E6B21716F020E00
:102228007025D96E000E7121DA6EDF506F198E6F2E
:102238008D198B6F8F516A256D6F000E6B216E6F34
:102248006D29D96E000E6E21DA6EDF506F6F8F51D7
:102258006A25706F000E6B21716F020E7025D96EA2
:10226800000E7121DA6EDF506F198C6F7F0E8D654D
:102278000CD01B0E8DC06DF06E6BD8906D376E371D
:102288006D19856F6E51866F05D0D8908D35856F25
:10229800866B863785C08DF07F0E8C650CD01B0E43
:1022A8008CC06DF06E6BD8906D376E376D19876F77
:1022B8006E51886F05D0D8908C35876F886B8837BA
:1022C80087C08CF07F0E8E650CD01B0E8EC06DF013
:1022D8006E6BD8906D376E376D19896F6E518A6F36
:1022E80005D0D8908E35896F8A6B8A3789C08EF071
:1022F8008F516A25D96E000E6B21DA6E8F516A25CF
:10230800E96E000E6B21EA6EEF508B198D19DF6EA6
:102318008F516A256D6F000E6B216E6F6D29D96E16
:10232800000E6E21DA6E8F516A256F6F000E6B21D9
:10233800706F6F29E96E000E7021EA6EEF508B19ED
:102348008C19DF6E8F516A256D6F000E6B216E6FD1
:10235800020E6D25D96E000E6E21DA6E8F516A2538
:102368006F6F000E6B21706F020E6F25E96E000E05
:102378007021EA6EEF508B198E19DF6E8F516A2526
:102388006D6F000E6B216E6F030E6D25D96E000EFA
:102398006E21DA6E8F516A256F6F000E6B21706F98
:1023A800020E6F25E96E000E7021EA6EEF50716F14
:1023B8008F516A25726F000E6B21736F7229E96E57
:1023C800000E7321EA6EEF50746F8F516A25E96E23
:1023D800000E6B21EA6EEF50741971198B19DF6EBC
:1023E800040E8F270F0E8F65F0D6750E646FDEEC26
:1023F80014F08F6B8F51750FD96EDA6ADF506D6FDD
:102408008F516A25D96E000E6B21DA6E6D51DF1A75
:102418008F2B0F0E8F65EED74706475001E0ABD6DE
:1024280012000A0EE126000EE22252685368546830
:102438005568FA0E52C0E3FFFB0E53C0E3FFFC0ED3
:1024480054C0E3FFFD0E55C0E3FFFF0EE36AFE0E26
:10245800E36AFE0EE3500E0D040EF324D96E040E4B
:10246800F420DA6EDE0401E0AAD0FE0EE3500E0D71
:10247800080EF324D96E040EF420DA6EDE50DE1056
:10248800DE10DE1001E19BD0FE0EE3500E0D080EAB
:10249800F324D96E040EF420DA6EDE500201C85D12
:1024A800DE50C959DE50CA59DE50CB592FE2FE0E14
:1024B800E3500E0D080EF324D96E040EF420DA6EE4
:1024C800DECF52F0DECF53F0DECF54F0DECF55F042
:1024D800C851525C4E6EC95153584F6ECA51545828
:1024E800506ECB515558516EFE0EE3500E0D080E2E
:1024F800F324D96E040EF420DA6E4EC0DEFF4FC00E
:10250800DEFF50C0DEFF51C0DEFF0DD0FE0EE350EF
:102518000E0D080EF324D96E040EF420DA6EDE6A6E
:10252800DE6ADE6ADD6AFE0EE3500E0D080EF32445
:10253800D96E040EF420DA6EFA0EE3CF4BF0DE50BB
:102548004B5CFB0EE3CF4BF0DE504B58FC0EE3CF59
:102558004BF0DE504B58FD0EE3CF4BF0DE504B589E
:102568002EE3FE0EE3500E0D080EF324D96E040E72
:10257800F420DA6EDE50DE10DE10DE1020E0FE0EF3
:10258800E3500E0D080EF324D96E040EF420DA6E13
:10259800DECF52F0DECF53F0DECF54F0DECF55F071
:1025A800FA0E52C0E3FFFB0E53C0E3FFFC0E54C00B
:1025B800E3FFFD0E55C0E3FFFF0EE36AE32AFE0EBC
:1025C800E32AE3CF4BF00F0E4B6443D7FF0EE3042F
:1025D80001E096D0E150FA0FD96EE250DA6EFF0EA4
:1025E800DA22DECFC8F2DECFC9F2DECFCAF2DECF02
:1025F800CBF2FD0EE3500DE1FA0EE328FB0EE3CF1C
:102608004BF0FF0E4B5AFC0EE3CF4BF00F0E4B5A1C
:1026180028E3E150FA0FD96EE250DA6EFF0EDA22A3
:10262800DECF64F0DECF65F0DECF66F0DECF67F098
:102638007D0E0001686F696B6A6B6B6B1BEC31F088
:1026480064C052F065C053F066C054F067C055F0DE
:102658000C0ED8905236533654365536E82EF9D7E4
:102668002CD0FA0EE3CF52F0FB0EE3CF53F0FC0E62
:10267800E3CF54F0FD0EE3CF55F00C0ED890523650
:10268800533654365536E82EF9D752C064F053C045
:1026980065F054C066F055C067F07D0E0001686FA4
:1026A800696B6A6B6B6B1BEC31F064C052F065C0F0
:1026B80053F066C054F067C055F0F60E52C0E3FF01
:1026C800F70E53C0E3FFF80E54C0E3FFF90E55C0F0
:1026D800E3FFE150F60FD96EE250DA6EFF0EDA2210
:1026E800DECF71F0DECF72F0DECF73F0DECF74F0A4
:1026F8000201E9515EEC37F00201E95159EC2FF083
:10270800F50EE126FF0EE222FF0C0001AB69AC6971
:10271800AD69AE69020103B138D102510F0B030A4A
:102728000EE1125105E10251F00B0409026F12008B
:10273800020E1219D8A41200E66AF4EF2AF000B5C6
:1027480078EF3AF002A9120000A14DD0D951D75D17
:1027580034E30251F00B0609026FA0510001A76F84
:102768000201A1510001A86FA96BAA6B0C0ED890A9
:10277800A737A837A937AA37E82EF9D7A7C064F032
:10278800A8C065F0A9C066F0AAC067F07D0E686FA2
:10279800696B6A6B6B6B1BEC31F064C071F065C0E0
:1027A80072F066C073F067C074F00201E8515EEC25
:1027B80037F00201E85159EF2FF0A3EC3CF001018A
:1027C80072517311D8B412000001646B656B666BAB
:1027D800676B0500FA6A01017251FD6E7351FE6E56
:1027E800FF6AFA501200D851D65D01E2B7D0025103
:1027F800F00B0609026F010EC1EC33F0000919E174
:10280800F00E966F040E976FD4C298F000EC18F093
:102818009651971107E10201D82B0251F00B0109DB
:10282800026F12009CEC3CF0010172517311CCE173
:102838001200AF6B5BD00001AF510E0D040EF324F4
:10284800D96E040EF420DA6EDE044EE1AF510E0D9F
:10285800080EF324D96E040EF420DA6EDE50DE1072
:10286800DE10DE1041E0AF510E0D080EF324D96ED4
:10287800040EF420DA6EDE50AB5DDE50AC59DE504B
:10288800AD59DE50AE5930E3AF510E0D050EF324AD
:10289800D96E040EF420DA6EDF500F0BA76FA75124
:1028A8000201DF5D21E30001AF510E0D050EF32497
:1028B800D96E040EF420DA6EDF380F0BA76F020111
:1028C800DF510001A75D10E3AF510E0D080EF32490
:1028D800D96E040EF420DA6EDECFABF0DECFACF0AA
:1028E800DECFADF0DECFAEF00001AF2BAF5102016D
:1028F800ED5DA1E2ABC0A7F0ACC0A8F0ADC0A9F0F7
:10290800AEC0AAF00C0ED8900001A737A837A93797
:10291800AA37E82EF8D7000EA725646F200EA82145
:10292800656F030EA921666F000EAA21676F7D0EE1
:10293800686F696B6A6B6B6B1BEC31F064C071F08C
:1029480065C072F066C073F067C074F00201EA51A6
:102958005EEC37F00201EA5159EF2FF09CEC3CF0A5
:10296800010172517311D8B412000001646B656BD8
:10297800666B010E676F0500FA6E01017251FD6EFC
:102988007351FE6EFF6AFA50120001017251731101
:10299800D8B412000001646B656B666B020E676F3A
:1029A8000500FA6E01017251FD6E7351FE6EFF6AE9
:1029B800FA5012006451D96EDA6A0D0ED926DF502A
:1029C800656F666B250E6525F66EFD0E6621F76E42
:1029D800F86A000EF8220800F5CF67F06451D96E46
:1029E800DA6A6751DF1A6451D96EDA6A0E0ED9268F
:1029F800DF50656F666B250E6525F66EFD0E662148
:102A0800F76EF86A000EF8220800F5CF67F06451F7
:102A1800D96EDA6AD92A6751DF1A6451D96EDA6A2F
:102A28000F0ED926DF50656F666B250E6525F66E8D
:102A3800FD0E6621F76EF86A000EF8220800F5CF41
:102A480067F06451D96EDA6A020ED9266751DF1A27
:102A58006451D96EDA6A0C0ED926DF50656F666B41
:102A6800250E6525F66EFD0E6621F76EF86A000ED6
:102A7800F8220800F5CF67F06451D96EDA6A030EC0
:102A8800D9266751DF1A6451D96EDA6A4650DF1ABF
:102A98007F0E46640CD01B0E46C065F0666BD8905E
:102AA800653766376519686F6651696F05D0D890C4
:102AB8004634686F696B693768C046F06451D96EEF
:102AC800DA6ADF50656F6451D96EDA6A040ED92666
:102AD8006551DF1A6451D96EDA6AD92ADF50656FF9
:102AE8006451D96EDA6A050ED9266551DF1A645128
:102AF800D96EDA6A020ED926DF50656F6451D96E35
:102B0800DA6A060ED9266551DF1A6451D96EDA6A77
:102B1800030ED926DF50656F6451D96EDA6A070E45
:102B2800D9266551DF1A6451D96EDA6A040ED9269E
:102B3800DF50656F6451D96EDA6A080ED92665517F
:102B4800DF1A6451D96EDA6A050ED926DF50656F2F
:102B58006451D96EDA6A090ED9266551DF1A6451B3
:102B6800D96EDA6A060ED926DF50656F6451D96EC0
:102B7800DA6A0A0ED9266551DF1A6451D96EDA6A03
:102B8800070ED926DF50656F6451D96EDA6A0B0ECD
:102B9800D9266551DF1A6451D96EDA6A080ED9262A
:102BA800DF50656F6451D96EDA6A0C0ED92665510B
:102BB800DF1A6451D96EDA6A090ED926DF50656FBB
:102BC8006451D96EDA6A0D0ED9266551DF1A64513F
:102BD800D96EDA6A0A0ED926DF50656F6451D96E4C
:102BE800DA6A0E0ED9266551DF1A6451D96EDA6A8F
:102BF8000B0ED926DF50656F6451D96EDA6A0F0E55
:102C0800D9266551DF1A120001019CA506D0800E55
:102C18000001976F030E966F030C9CC198F0030E8A
:102C28000001981705E0800E976F040E966F040C4C
:102C38009651971107E1000E7E6F040E7D6FD4EC5C
:102C480009F006D096C07DF097C07EF0D4EC09F06C
:102C58000101910511E1010E0001666F220E3DECA4
:102C68003BF00001666B400E3DEC3BF00001666BEB
:102C7800410E3DEC3BF014D0ADC166F0120E3DECB8
:102C88003BF0AEC166F0130E3DEC3BF00001666B05
:102C9800400E3DEC3BF00001666B410E3DEC3BF015
:102CA80001019C83E70E9C1700019651971108E1DA
:102CB80091C169F0000E6A6F050EB9EC29F041D098
:102CC8000101910509E1010E0001696F000E6A6FAB
:102CD800060EB9EC29F035D0000E0001696F6A6F55
:102CE800050EB9EC29F000019651986F9751996F2C
:102CF8009A6B9B6B0C0ED890983799379A379B37FD
:102D0800E82EF9D798C064F099C065F09AC066F0CB
:102D18009BC067F07D0E686F696B6A6B6B6B1BEC11
:102D280031F064C071F065C072F066C073F067C0BE
:102D380074F00101A1515EEC37F00101A15159EC89
:102D48002FF00101A351A411A511A61159E0A65114
:102D580006E1A329FF0EA4590F0EA55919E3A3C133
:102D680064F0A4C165F0A5C166F0A6C167F07D0E48
:102D78000001686F696B6A6B6B6B1BEC31F00C0EB2
:102D8800D8906437653766376737E82EF9D720D08B
:102D9800A3C198F0A4C199F0A5C19AF0A6C19BF06F
:102DA8000C0ED8900001983799379A379B37E82E40
:102DB800F8D798C064F099C065F09AC066F09BC0D7
:102DC80067F07D0E686F696B6A6B6B6B1BEC31F09B
:102DD80064C09CF065C09DF066C09EF067C09FF01F
:102DE8009CC071F09DC072F09EC073F09FC074F0DB
:102DF8000101A2515EEC37F00101A25159EC2FF00C
:102E08000001966B976B12007F6B7AC080F07BC0D5
:102E180081F0DED00201A751020DA90EF324D96E6C
:102E2800020EF420DA6EDF90A751020DA90EF324EA
:102E3800D96E020EF420DA6EDF92A751020DA90EA8
:102E4800F324D96E020EF420DA6EDF94A751020D36
:102E5800A90EF324D96E020EF420DA6EDF96A7517C
:102E6800020DA90EF324D96E020EF420DA6EDF9853
:102E7800A751020DA90EF324D96E020EF420DA6EC2
:102E8800DF9AA751020DA90EF324D96E020EF42081
:102E9800DA6EDF9CA751020DA90EF324D96E020E3B
:102EA800F420DA6EDF9E80C0D9FF81C0DAFFA75117
:102EB800020DA80EF324E96E020EF420EA6EDFCFAD
:102EC800EFFF60D080C064F081C065F026EC39F077
:102ED80064C080F065C081F00201A751020DA80E00
:102EE800F324D96E020EF420DA6EDF6862D080C057
:102EF80071F081C072F0BCEC1AF071C080F072C041
:102F080081F057D080C064F081C065F0A4EC35F042
:102F180064C080F065C081F04CD080C070F081C082
:102F280071F072EC21F070C080F071C081F041D076
:102F380080C064F081C065F000EC3DF064C080F0B2
:102F480065C081F036D080C070F081C071F0DBECD4
:102F580019F070C080F071C081F02BD080C069F08A
:102F680081C06AF08AEC3AF069C080F06AC081F0EA
:102F780020D0010E7F6F7C517A25806F000E7B2157
:102F8800816FAAD780C0D9FF81C0DAFF0001804BCA
:102F9800812BDF50020A96E0010AA9E0070AB2E095
:102FA800010ABBE0030AC4E0010ACDE00F0AD6E03B
:102FB800E0D70201A751020DA80EF324D96E020E24
:102FC800F420DA6EDE2804E0100EA76101D0A72BEA
:102FD80000017C517A257D6F000E7B217E6F7D512B
:102FE800805D7E51815903E27F5101E113D780C092
:102FF8007AF081C07BF0120001019CA506D0800EFA
:103008000001976F030E966F030C9CC199F0030E95
:103018000001991705E0800E976F040E966F040C57
:103028000101915109E1400E0001986505D0800E1B
:10303800976F020E966F020C0101A0516AEC3BF0EB
:10304800000E7E6F040E7D6FD4EC09F0010191052E
:1030580023E198C066F0220E3DEC3BF00A0E41ECED
:103068003AF0A56FF00EA517A587A5C066F00A0E61
:103078003DEC3BF0400E0001666F3DEC3BF000017B
:10308800666B410E3DEC3BF091C169F0010E000109
:103098006A6FB9EC29F00AD00001666B400E3DEC6E
:1030A8003BF00001666B410E3DEC3BF00101915194
:1030B80005E198C066F0000E3DEC3BF05FEC3DF09A
:1030C800800E19EC3DF00001A66B0BD0A651962599
:1030D800D96E000E9721DA6EDF5019EC3DF0000131
:1030E800A62B9851A65DF2E35DEC3DF001019C81B1
:1030F800E70E9C1791C169F0000E00016A6F030E7C
:10310800B9EC29F00001716B726B0A0E736F746B66
:103118000101A0515EEC37F00101A05159EC2FF0EC
:103128000101A351A411A511A61159E0A65106E168
:10313800A329FF0EA4590F0EA55919E3A3C164F0E2
:10314800A4C165F0A5C166F0A6C167F07D0E0001B7
:10315800686F696B6A6B6B6B1BEC31F00C0ED89067
:103168006437653766376737E82EF9D720D0A3C1AB
:1031780099F0A4C19AF0A5C19BF0A6C19CF00C0ED1
:10318800D890000199379A379B379C37E82EF8D7A3
:1031980099C064F09AC065F09BC066F09CC067F067
:1031A8007D0E686F696B6A6B6B6B1BEC31F064C0EA
:1031B800A1F065C0A2F066C0A3F067C0A4F0A1C0EA
:1031C80071F0A2C072F0A3C073F0A4C074F0010142
:1031D800A2515EEC37F00101A25159EC2FF0000129
:1031E800966B976B12000001746F210E7419D8A4A6
:1031F8001200030E796F7A6B756B766B776B786B51
:10320800750E646F656B7A51030D70C072F071C0F2
:1032180073F0F3507227F45073230D0E7227000ECB
:1032280073237251666F676B696B030E686FD5EC19
:1032380034F075C064F076C065F077C066F078C089
:1032480067F0640E686F696B6A6B6B6B9DEC2FF0AF
:1032580064C075F065C076F066C077F067C078F036
:10326800755176117711781101E194D075C064F029
:1032780076C065F077C066F078C067F04FEC34F040
:10328800000901E08CD07A510E0D000E726F040E09
:10329800736FF3507227F450732379510E0DF35066
:1032A8007225D96EF4507321DA6E75C0DEFF76C0D0
:1032B800DEFF77C0DEFF78C0DEFF7A510E0D000E0C
:1032C800726F040E736F050E7227000E7323F3508E
:1032D8007227F450732379510E0DF3507225D96E6D
:1032E800F4507321DA6EDF500F0B5009DF6E0001C6
:1032F8007A510E0D000E726F040E736F050E722751
:10330800000E7323F3507227F450732379510E0D76
:10331800F3507225D96EF4507321DA6EF00EDF1671
:103328007A510E0D000E726F040E736F060E72271F
:10333800000E7323F3507227F450732379510E0D46
:10334800F3507225D96EF4507321DA6EE70EDE6EF3
:10335800030EDD6E7A510E0D000E726F040E736F40
:103368000D0E7227000E7323F3507227F450732347
:1033780079510E0DF3507225D96EF4507321DA6E1F
:10338800DF68010E686F7A51792553EC38F0020135
:10339800038705D0686B7A51792553EC38F0000122
:1033A8007A2B040E7A6528D702010387040C70C0B3
:1033B800D9FF71C0DAFFDF50776F704B712B70C087
:1033C800D9FF71C0DAFFFF0EDE14736FFF0EDE1433
:1033D800746FFF0EDE14756F000EDE14766F73C007
:1033E80064F074C065F075C066F076C067F0640E6E
:1033F800686F696B6A6B6B6B9DEC2FF064C073F040
:1034080065C074F066C075F067C076F0030E70276B
:10341800000E712370C0D9FF71C0DAFFDF50726FE0
:10342800704B712B646B77511FEC3BF000092BE15B
:1034380073C064F074C065F075C066F076C067F05C
:103448004FEC34F0000905E07351741175117611D1
:103458000AE10201A751020DA90EF324D96E020E4A
:10346800F420DA6EDF8E00017251C0EC38F00009EA
:103478000AE10201A751020DA90EF324D96E020E2A
:10348800F420DA6EDF8C0201A751020DA90EF32495
:10349800D96E020EF420DA6EDFAE65D0A751020DA8
:1034A800A90EF324D96E020EF420DA6EDFAC5BD0DD
:1034B800100EDA6129D0000173517411751176115B
:1034C8001EE073C064F074C065F075C066F076C025
:1034D80067F0775136EC38F072C064F0775185ECBC
:1034E80026F0010E0001656F2E0E646F77510DEC0A
:1034F80039F0010E646F775105EC25F032D0686B16
:10350800775153EC38F02DD00001735174117511B7
:10351800761122E073C064F074C065F075C066F07F
:1035280076C067F07751100F36EC38F072C064F04F
:103538007751100F85EC26F0010E0001656F2E0EF5
:10354800646F7751100F0DEC39F0010E646F7751ED
:10355800100F05EC25F005D0686B7751100F53EC70
:1035680038F00201038770C070F071C071F012006A
:1035780071C0D9FF72C0DAFFDF500F0B766F71C0D0
:10358800D9FF72C0DAFFDF50736F73390F0B796F91
:10359800714B722B71C0D9FF72C0DAFFDECF74F0A5
:1035A800DDCF75F0020E7127000E722371C077F01F
:1035B80072C078F0714B722B020102AD92D077C0C5
:1035C800D9FF78C0DAFF0001DF38070B30EC3CF098
:1035D800000912E174C064F075C065F06FEC38F052
:1035E80000090AE10201A751020DA90EF324D96EC0
:1035F800020EF420DA6EDF800001795167EC3CF0AE
:10360800000912E10201EB510001795D0DE37951E6
:103618000201EC5D09E3A751020DA90EF324D96E4E
:10362800020EF420DA6EDF8200017651BFEC3AF028
:1036380000090AE10201A751020DA90EF324D96E6F
:10364800020EF420DA6EDF840201A751020DA90EE2
:10365800F324D96E020EF420DA6EDFA45DD0A751F0
:10366800020DA90EF324D96E020EF420DA6EDFA241
:1036780053D0A751020DA90EF324D96E020EF420DF
:10368800DA6EDFA049D074C06EF075C06FF077C0F5
:10369800D9FF78C0DAFF0001DF38070B706F52ECF2
:1036A8003CF0765126EC3DF0020103890001795186
:1036B8002AEC3DF077C0D9FF78C0DAFF0001DF506F
:1036C8000F0B03E10201D66B0AD077C0D9FF78C08F
:1036D800DAFFDF500F0B736F73050201D66F038B90
:1036E8001BD0A751020DA90EF324D96E020EF420A7
:1036F800DA6EDF90A751020DA90EF324D96E020EDF
:10370800F420DA6EDF92A751020DA90EF324D96EC8
:10371800020EF420DA6EDF9471C071F072C072F09C
:1037280012009651986F9751996F9A6B9B6BE80EA0
:103738009803F3CF9CF0F4CF9DF09E6B9F6B990399
:10374800F3509D27F4509E23000E9F23030E9803E9
:10375800F3509D27F4509E23000E9F23E80E9A03F2
:10376800F3509E27F4509F23030E9903F3509E278E
:10377800F4509F23000E9803F3509E27F4509F2384
:10378800E80E9B03F3509F27030E9A03F3509F27DD
:10379800000E9903F3509F27000E9803F3509F27BC
:1037A8009CC0CCF29DC0CDF29EC0CEF29FC0CFF29D
:1037B8009651971127E10201E7516AEC3BF00201AB
:1037C80003950001A46B18D0A451020DA80EF32490
:1037D800D96E020EF420DA6E020EDE180BE1A45147
:1037E800020DA80EF324D96E020EF420DA6EDF68FB
:1037F8000201A7070001A42B0201A7510001A45D43
:10380800E3E312000201038502A91200CF5106E189
:10381800CC29FF0ECD590F0ECE5919E3CCC264F056
:10382800CDC265F0CEC266F0CFC267F07D0E000152
:10383800686F696B6A6B6B6B1BEC31F00C0ED89080
:103848006437653766376737E82EF9D720D0CCC29A
:1038580098F0CDC299F0CEC29AF0CFC29BF00C0E70
:10386800D8900001983799379A379B37E82EF8D7C0
:1038780098C064F099C065F09AC066F09BC067F084
:103888007D0E686F696B6A6B6B6B1BEC31F064C003
:10389800A0F065C0A1F066C0A2F067C0A3F0A0C008
:1038A80071F0A1C072F0A2C073F0A3C074F002015D
:1038B800E7515EEC37F00201E75159EF2FF07FC076
:1038C80079F180C07AF181C07BF182C07CF1A80EC9
:1038D80001017D6F610E7E6F7F6B806B500E816F73
:1038E800C30E826F836B846B010E916F070E936F0B
:1038F800010E946F9A6F9B6B866B080E856F0C0E8A
:10390800926F010E956F966B996BC10E886F940E2E
:10391800896FC10E8A6F030E906F340E876F9C6B90
:103928009D6B7DC09EF17EC09FF1976B986B800E5A
:10393800AB6F980EA36F3A0EA46FA56BA66B020E21
:10394800AC6F0B0EAD6F120EAE6FA86BA96BA751C3
:1039580023E1F9EC31F00101A06FF9EC31F001013C
:10396800A16FF9EC31F00101A26F160E0001646F2E
:10397800710E656F666B0101A1513FEC39F0380E8D
:10398800646F6E0E656F666B0101A2513FEC39F0F2
:10399800010E0101A76F0BD0A0516AEC3BF00101A9
:1039A800A1516AEC3BF00101A2516AEC3BF0DAEC60
:1039B80038F0000E0001696F010E6A6FB9EC29F04A
:1039C80079C171F07AC172F07BC173F07CC174F077
:1039D8004BEC29F0420E0001666F3B0E3DEC3BF0CC
:1039E8003B0E41EC3AF0836F83BBFAD7230E666F28
:1039F8000C0E3DEC3BF01E0E0001666F0D0E3DEC0B
:103A08003BF0AA0E0001666F1F0E3DEC3BF08F0ED7
:103A18000001666F350E3DEC3BF000016669320E21
:103A28003DEC3BF0400E0001666F310E3DEC3BF083
:103A3800010E0001696F6A6F000EB9EC29F00001F0
:103A48006669230E3DEC3BF0420E41EC3AF0010171
:103A5800AA6F12003F0E41EC3AF0DE6FDEA71200AB
:103A680091C169F0000E6A6FB9EC29F001019C91CF
:103A7800A2516AEC3BF001019CB91200A0517FEC05
:103A880037F0905107E11F0E8D5DAC0E8E59DF0E99
:103A98008F5946E30101A0517FEC37F00D0E05D098
:103AA800D89090338F338E338D33E82EF9D77D0E2F
:103AB8008D03F3CFD2F0F4CFD3F0D46BD56B8E0354
:103AC800F350D327F450D423000ED5238D03F3509D
:103AD800D327F450D423000ED5237D0E8F03F35043
:103AE800D427F450D523000E8E03F350D427F45076
:103AF800D523000E8D03F350D427F450D5237D0E23
:103B08009003F350D527000E8F03F350D527000EEE
:103B18008E03F350D527000E8D03F350D52745D0DB
:103B28000101A0517FEC37F07D0E8D03F3CFD2F069
:103B3800F4CFD3F0D46BD56B8E03F350D327F45066
:103B4800D423000ED5238D03F350D327F450D42368
:103B5800000ED5237D0E8F03F350D427F450D523C0
:103B6800000E8E03F350D427F450D523000E8D0396
:103B7800F350D427F450D5237D0E9003F350D52766
:103B8800000E8F03F350D527000E8E03F350D52770
:103B9800000E8D03F350D5270D0E05D0D890D533E0
:103BA800D433D333D233E82EF9D7D2C0DAF0D3C026
:103BB800DBF0D4C0DCF0D5C0DDF0DA512008D66FD8
:103BC8004E0EDB55D76F000EDC55D86F000EDD5555
:103BD800D96F0101A0516AEC3BF0D6C0A0F0D7C064
:103BE800A1F08CEF05F00101A2516AEC3BF0080E40
:103BF800666F120E3DEC3BF091C169F0000E0001BA
:103C08006A6FB9EC29F001019C919CB91200A0518E
:103C18007FEC37F0905107E11F0E8D5DAC0E8E5989
:103C2800DF0E8F5946E30101A0517FEC37F00D0EEE
:103C380005D0D89090338F338E338D33E82EF9D753
:103C48007D0E8D03F3CFD2F0F4CFD3F0D46BD56BC8
:103C58008E03F350D327F450D423000ED5238D03BD
:103C6800F350D327F450D423000ED5237D0E8F03B1
:103C7800F350D427F450D523000E8E03F350D427E5
:103C8800F450D523000E8D03F350D427F450D523D8
:103C98007D0E9003F350D527000E8F03F350D527E0
:103CA800000E8E03F350D527000E8D03F350D52751
:103CB80045D00101A0517FEC37F07D0E8D03F3CF85
:103CC800D2F0F4CFD3F0D46BD56B8E03F350D32757
:103CD800F450D423000ED5238D03F350D327F4508A
:103CE800D423000ED5237D0E8F03F350D427F45030
:103CF800D523000E8E03F350D427F450D523000E9D
:103D08008D03F350D427F450D5237D0E9003F35040
:103D1800D527000E8F03F350D527000E8E03F350DE
:103D2800D527000E8D03F350D5270D0E05D0D8905A
:103D3800D533D433D333D233E82EF9D7D2C0DAF01F
:103D4800D3C0DBF0D4C0DCF0D5C0DDF0DA512008F8
:103D5800D66F4E0EDB55D76F000EDC55D86F000EB0
:103D6800DD55D96FD6C0A0F0D7C0A1F08CEF05F013
:103D780020EE01F06451D9266551DA22DF50666FD2
:103D880020EE05F06451D9266551DA2200EE01F0E3
:103D98006451E9266551EA22DFCFEFFF20EE09F0F2
:103DA8006451D9266551DA2200EE05F06451E926FE
:103DB8006551EA22DFCFEFFF20EE0DF06451D926DE
:103DC8006551DA2200EE09F06451E9266551EA22CC
:103DD800DFCFEFFF20EE0DF06451D9266551DA22CE
:103DE80066C0DFFF20EE02F06451D9266551DA2261
:103DF800DF50666F20EE0AF06451D9266551DA2249
:103E080000EE02F06451E9266551EA22DFCFEFFFA8
:103E180020EE0AF06451D9266551DA2266C0DFFF28
:103E280020EE0EF06451D9266551DA22DF50666F14
:103E380020EE06F06451D9266551DA2200EE0EF024
:103E48006451E9266551EA22DFCFEFFF20EE06F044
:103E58006451D9266551DA2266C0DFFF20EE03F0EF
:103E68006451D9266551DA22DF50666F20EE0FF0D3
:103E78006451D9266551DA2200EE03F06451E9262F
:103E88006551EA22DFCFEFFF20EE0BF06451D9260F
:103E98006551DA2200EE0FF06451E9266551EA22F5
:103EA800DFCFEFFF20EE07F06451D9266551DA2203
:103EB80000EE0BF06451E9266551EA22DFCFEFFFEF
:103EC80020EE07F06451D9266551DA2266C0DFFF7B
:103ED80012000001A56F0201F00502E1F2EC35F0D5
:103EE800340E0201F46FF45114EC3DF00201026B40
:103EF800036B046B056BDD69DE6BC86BC96BCA6B42
:103F0800CB6BD46BD56B0A6B0B6B0C6B0D6B066BA9
:103F1800076B086B096BD26BD36BDC6B010EDB6F25
:103F2800D06BD16BEE6BEF6BC86BC96BCA6BCB6B8D
:103F38000395026B036B046B056B006B016B070E3B
:103F4800D76FD66B010ED96FD86FE069A5C0A4F200
:103F5800126B100EED6F0001A5511AE1FF0E7D6F77
:103F6800050E7E6FA00E7F6F270E806FBE0E816FCD
:103F7800330E826F63EC1CF095EC32F002011C6B7F
:103F8800080E186FE60E196FD30E1A6F330E19D07C
:103F9800FF0E7D6F050E7E6F200E7F6FA20E806F65
:103FA800D30E816F190E826F63EC1CF0C8EC32F0EF
:103FB80002011C6B280E186F760E196FE80E1A6F27
:103FC800190E1B6F010EE16FDF6BCFEC2CF00201B5
:103FD800A56BA66B1D0E0001646F020E656F676B03
:103FE800666B696B690E686FF1EC39F0030E0201BC
:103FF800956FE80E946F070E976FD00E966F130E9D
:10400800996F880E986F170E9B6F700E9A6F070E38
:10401800A16FD00EA06F200EA36F400EA26F9D6FF0
:104028009C6B9F6F9E6B0001976B966B95EF1BF0D7
:10403800050EE126000EE222020103A103A529D004
:10404800FF0EE36A0ED0FF0EE350020DA80EF32414
:10405800D96E020EF420DA6E020EDE1808E0FF0EAA
:10406800E32AFF0EE3CF4BF0A7514B5CECE3FF0EC6
:10407800E350A7190EE1A751020DA80EF324D96E3B
:10408800020EF420DA6E020EDF6E100EA76101D068
:10409800A72B03A574D0CF5106E1CC29FF0ECD592B
:1040A8000F0ECE5921E3CCC264F0CDC265F0CEC26A
:1040B80066F0CFC267F07D0E0001686F696B6A6BAE
:1040C8006B6B1BEC31F064C052F065C053F066C0F6
:1040D80054F067C055F00C0ED8905236533654360B
:1040E8005536E82EF9D728D0CCC252F0CDC253F0BD
:1040F800CEC254F0CFC255F00C0ED890523653367B
:1041080054365536E82EF9D752C064F053C065F0DE
:1041180054C066F055C067F07D0E0001686F696B8A
:104128006A6B6B6B1BEC31F064C052F065C053F0E6
:1041380066C054F067C055F0FB0E52C0E3FFFC0E9A
:1041480053C0E3FFFD0E54C0E3FFFE0E55C0E3FF6E
:10415800E150FB0FD96EE250DA6EFF0EDA22DECFA5
:1041680071F0DECF72F0DECF73F0DECF74F00201B3
:10417800E7515EEC37F00201E75159EC2FF0FA0EE7
:10418800E126FF0EE222FF0CB86BB96BA6390F0BC4
:10419800B76F010EB86F51D0A8C06EF0A9C06FF00C
:1041A800AAC070F0ABC071F0B8C072F0010E736FA6
:1041B800B1C074F0A75182EC2DF0AF0E906F010ED4
:1041C800916FACC092F0ADC093F01AEC3AF0B96BB5
:1041D800AE51AF25D96E000EB021DA6EB851B26F6C
:1041E800B36BB23BB33BF00EB317B2510F0BB31323
:1041F800F00EB217A4C0B4F0A5C0B5F0B251B42700
:10420800B351B523B951B427000EB523F00EB42528
:10421800E96EFF0EB521EA6EEF50B66FAF0EB92505
:10422800E96EEA6A010EEA22EF50B619DF6EAE2B8C
:10423800B92B0F0EB965CCD7B82BB851B75DACE226
:10424800A6C0B2F00F0EB217D8B40F0CA8C06EF00B
:10425800A9C06FF0AAC070F0ABC071F0B8C072F01E
:10426800010E736FB1C074F0A75182EC2DF0AF0E40
:10427800906F010E916FACC092F0ADC093F01AEC44
:104288003AF0B96B23D0AE51AF25D96E000EB021EC
:10429800DA6EB751100DA4C0B2F0A5C0B3F0F35058
:1042A800B227F450B323B951B225E96E000EB321F9
:1042B800EA6EEF50B46FAF0EB925E96EEA6A010EE7
:1042C800EA22EF50B419DF6EAE2BB92BA6C0B2F0BC
:1042D8000F0EB217B251B95DD6E3120070C0D9FF04
:1042E80071C0DAFFDF50766F704B712B70C0D9FF49
:1042F80071C0DAFFFF0EDE14726FFF0EDE14736FEB
:10430800FF0EDE14746F000EDE14756F72C064F059
:1043180073C065F074C066F075C067F0640E686FAE
:10432800696B6A6B6B6B9DEC2FF064C072F065C0B3
:1043380073F066C074F067C075F0030E7027000E46
:10434800712372C064F073C065F074C066F075C004
:1043580067F04FEC34F000090AE10201A751020DA1
:10436800A90EF324D96E020EF420DA6EDF8600015E
:1043780076510F0B67EC3CF000090AE10201A751E6
:10438800020DA90EF324D96E020EF420DA6EDF882E
:1043980000017639070B5DEC3CF000090AE10201E7
:1043A800A751020DA90EF324D96E020EF420DA6E7D
:1043B800DF8A0201A751020DA90EF324D96E020E5D
:1043C800F420DA6EDFA829D0A751020DA90EF32434
:1043D800D96E020EF420DA6EDFA61FD0A751020DA7
:1043E800A90EF324D96E020EF420DA6EDFAA15D0D6
:1043F80000017639070B0201EF6F72C064F073C0D9
:1044080065F074C066F075C067F0000176510F0B57
:10441800686F47EC3CF00201038F70C070F071C008
:1044280071F0120066EC3AF054EC3AF0B40E000168
:10443800776FFF0E786F7CEC24F08C84400E776FDA
:10444800FF0E786F7CEC24F0F28EF28C7B0E776F87
:10445800FF0E786F7CEC24F0DC0EA66F7A0EA76F47
:10446800480EA86F780EA96F20EC34F0E30E000117
:104478006E6F010E6F6FB2EC39F0D30E00016E6FE4
:10448800010E6F6FC7EC39F0780E0001646F560E9D
:10449800656F340E666F120E676FF4EC3BF0010E19
:1044A80013EC2FF0980E0001776FFF0E786F7CECFD
:1044B80024F08988010E0101776F02D0FBEC37F0F8
:1044C80001017651FBE08088FBEC37F001017705AC
:1044D8000AE1200E0001776FFF0E786F7CEC24F064
:1044E8007DEC35F0776B3EEC3DF00009ECE18B801C
:1044F800CB0E0001776FFF0E786F7CEC24F08C9464
:104508005E0E776FFF0E786F7CEC24F0060EEF6F6F
:10451800300EE82EFED7EF2FFCD700D0E00E0001BA
:10452800776FFF0E786F7CEC24F08B9054EC3AF0A8
:1045380001EC3BF0809803008C84F20E0001776F49
:10454800FF0E786F7CEC24F022EC3DF0420E000167
:10455800776FFF0E786F7CEC24F0010E0101776F06
:10456800B2D700019A699B699C699D699E6B5BD073
:1045780000019E510E0D040EF324D96E040EF42092
:10458800DA6EDE044EE19E510E0D080EF324D96E4C
:10459800040EF420DA6EDE50DE10DE10DE1041E08C
:1045A8009E510E0D080EF324D96E040EF420DA6E17
:1045B800DE509A5DDE509B59DE509C59DE509D5965
:1045C80030E39E510E0D050EF324D96E040EF4202F
:1045D800DA6EDF500F0B966F96510201DF5D21E313
:1045E80000019E510E0D050EF324D96E040EF42021
:1045F800DA6EDF380F0B966F0201DF510001965D0E
:1046080010E39E510E0D080EF324D96E040EF4200B
:10461800DA6EDECF9AF0DECF9BF0DECF9CF0DECFF5
:104628009DF000019E2B9E510201ED5DA1E2025119
:10463800F00B0609026F9AC096F09BC097F09CC0D9
:1046480098F09DC099F00C0ED890000196379737D6
:1046580098379937E82EF8D796C064F097C065F078
:1046680098C066F099C067F07D0E686F696B6A6BD9
:104678006B6B1BEC31F064C071F065C072F066C002
:1046880073F067C074F00201E6515EEC37F0020186
:10469800E65159EF2FF00001E56BE00E646F040E50
:1046A800656F676B666B010E696F0F0E686FF1ECD3
:1046B80039F01F0EE417FC0EE417E30EE41724EE9E
:1046C800E0F0E4C0DFFFE52BE66BE6515908D96E50
:1046D800000ED8A0E82A0208DA6EE00EDE6F040E9B
:1046E800DF6FE551DE27000EDF23E651DE25E96E98
:1046F800000EDF21EA6EDFCFEFFFE62B070EE6653F
:10470800E4D7080EE527E66BE6516108D96E000E7E
:10471800D8A0E82A0208DA6EE00EDE6F040EDF6F1A
:10472800E551DE27000EDF23E651DE25E96E000E97
:10473800DF21EA6EDFCFEFFFE62B070EE665E4D751
:10474800080EE52778697769D0EC3AF077C0D2F29D
:1047580078C0D3F2E00EE525646F656B040E65231F
:10476800D20E666F020E676F696B020E686FD5EC2A
:1047780034F0020EE527420E0101666F020E676FE4
:10478800E00E686F040E696FE5C06AF101EC35F060
:1047980066C1E0F067C1E1F068C1E2F069C1E3F029
:1047A800E00EE525646F656B040E6523E00E666F09
:1047B800676B696B040E686FD5EC34F0040EE5275F
:1047C800E5511200E652E652E652E6520201009521
:1047D8000289F00E0217D06BD16BEE6B03A574D073
:1047E800CF5106E1CC29FF0ECD590F0ECE5921E34A
:1047F800CCC264F0CDC265F0CEC266F0CFC267F01D
:104808007D0E0001686F696B6A6B6B6B1BEC31F096
:1048180064C052F065C053F066C054F067C055F0EC
:104828000C0ED8905236533654365536E82EF9D7F2
:1048380028D0CCC252F0CDC253F0CEC254F0CFC271
:1048480055F00C0ED8905236533654365536E82E5D
:10485800F9D752C064F053C065F054C066F055C033
:1048680067F07D0E0001686F696B6A6B6B6B1BEC00
:1048780031F064C052F065C053F066C054F067C0B0
:1048880055F0FC0E52C0E3FFFD0E53C0E3FFFE0ED1
:1048980054C0E3FFFF0E55C0E3FFE150FC0FD96E93
:1048A800E250DA6EFF0EDA22DECF71F0DECF72F060
:1048B800DECF73F0DECF74F00201E7515EEC37F023
:1048C8000201E75159EC2FF00101745175110BE009
:1048D80001D809D00500FA6E7451FD6E7551FE6E4F
:1048E800FF6AFA50010CFB0EE126FF0EE222FF0CD4
:1048F800790E7E6F77D0250E831904E08351FBEC87
:104908003CF070D07F6B77C0F6FF78C0F7FF774B2D
:10491800782BF86A0800F5CF83F08351D8B41200D9
:10492800640A02E00D0A5EE17E51D96EDA6ADECFD2
:1049380081F0DDCF82F0020E7E2782AF06D0030E13
:104948007F13816D821FD8B0822B010E836F835134
:10495800020D250EF324F66EFE0EF420F76EF86AAB
:10496800000EF8220900F550815D0900F5508259C2
:1049780004E3832B050E8319EAE17FC07DF0030E63
:104988007D1703E02D0EFBEC3CF083C080F026D0B1
:104998008051020D250EF324F66EFE0EF420F76EFC
:1049A800F86A000EF8220900F5CF66F00A00F5CF84
:1049B80067F081C064F082C065F065EC36F064C0D1
:1049C80072F065C073F0756B0A0E746F9EEC37F069
:1049D8007251300F836F8351FBEC3CF0000180076C
:1049E8008029D6E177C0F6FF78C0F7FF0001774B42
:1049F800782BF86A0800F5CF83F0835101E07BD764
:104A08001200666F000166510E0D040EF324D96E74
:104A1800040EF420DA6E64C0DFFF66510E0D040E3A
:104A2800F324D96E040EF420DA6EDF500CE16651DF
:104A38000E0D080EF324D96E040EF420DA6EDE6A29
:104A4800DE6ADE6ADD6A676B4ED067510E0D050EB1
:104A5800F324D96E040EF420DA6EDF500F0B000138
:104A6800656F0201EB510001655D16E267510E0D9D
:104A7800040EF324D96E040EF420DA6EDE040CE181
:104A880067510E0D050EF324D96E040EF420DA6E6C
:104A9800DF500F0B0201EB6F000167510E0D050E81
:104AA800F324D96E040EF420DA6EDF380F0B0201FE
:104AB800EC6117D0000167510E0D040EF324D96E76
:104AC800040EF420DA6EDE040CE167510E0D050EBB
:104AD800F324D96E040EF420DA6EDF380F0B0201CE
:104AE800EC6F0001672B0201ED510001675DADE33A
:104AF8000201DF51EC5D02E2ECC2DFF2EB51DF5D57
:104B0800D8A0EBC2DFF2120021EEC1F000EEABF04C
:104B18000F0EDBCFEBFFE806FCE2BB0E646F656BA4
:104B2800676B666B696B100E686FF1EC39F0BB0E42
:104B3800906F916BA4C092F0A5C093F01AEC3AF074
:104B4800BBBF0CD0BB0E646F656BA6C066F0A7C078
:104B580067F0100E686FAFEC36F01ED0BB0E646FB6
:104B6800656BA6C066F0A7C067F0100E686FAFEC63
:104B780036F0CB6BCB51AB0FD96EDA6ADF50AA6F28
:104B8800CB51A625D96E000EA721DA6EAA51DF1ADD
:104B9800CB2B0F0ECB65EED7A6C0D9FFA7C0DAFF87
:104BA800DFBE0CD0A6C064F0A7C065F0A8C066F050
:104BB800A9C067F0100E686FAFEF36F0A6C064F0BA
:104BC800A7C065F0A8C066F0A9C067F0100E686FAE
:104BD800AFEC36F0CB6BCB51A825D96E000EA921CE
:104BE800DA6ECB51AB0FE96EEA6AEF50AA6FCB5180
:104BF800A825E96E000EA921EA6EEF50AA19DF6E0A
:104C0800CB2B0F0ECB65E7D70F0CE652020103B191
:104C180073D0D951D75D53E319EC36F0556E0D0EAC
:104C28005526FF0E55C0E3FFE3504B6E4C6A020158
:104C3800D4514B5CD5514C5833E3010EC1EC33F0E1
:104C480000092BE1F00E966F040E976FD4C298F00E
:104C580000EC18F096C04BF097C04CF04B504C103D
:104C68001CE102010251F00B0109026FD92BD9B1E5
:104C780045D0DF5143E0D9514B6E4C6AD751546E41
:104C8800556A542A000E55224B50541803E14C50D3
:104C9800551834E0DBEC2DF031D0C4EC31F02ED0D7
:104CA800A3EC3CF001017251731128E00001646B20
:104CB800656B666B040E676F01D820D013D0D9518D
:104CC800D75D1CE203B11AD0A3EC3CF0010172518C
:104CD800731114E0000E0001646B656B666B676B03
:104CE80001D80CD00500FA6E01017251FD6E7351A6
:104CF800FE6EFF6AFA501200A3EC3CF0E552E55252
:104D08001200666F070E0201EB6FEC6B0001665133
:104D18000E0D050EF324D96E040EF420DA6E64C06D
:104D2800DFFF66510E0D0D0EF324D96E040EF4202C
:104D3800DA6E000EDB82676B4ED067510E0D050EE2
:104D4800F324D96E040EF420DA6EDF500F0B000145
:104D5800656F0201EB510001655D16E267510E0DAA
:104D6800040EF324D96E040EF420DA6EDE040CE18E
:104D780067510E0D050EF324D96E040EF420DA6E79
:104D8800DF500F0B0201EB6F000167510E0D050E8E
:104D9800F324D96E040EF420DA6EDF380F0B02010B
:104DA800EC6117D0000167510E0D040EF324D96E83
:104DB800040EF420DA6EDE040CE167510E0D050EC8
:104DC800F324D96E040EF420DA6EDF380F0B0201DB
:104DD800EC6F0001672B0201ED510001675DADE347
:104DE8000201DF51EC5D02E2ECC2DFF2EB51DF5D64
:104DF800D8A0EBC2DFF212005BEC3BF001C040F040
:104E080002C041F049043EE1496A0001F051405CAA
:104E18000D6EF15141580E6E0F6AD8A00F060F5053
:104E2800106E36500D5C116E37500E58126E385099
:104E38000F58136E39501058146E3A501124156ECD
:104E48003B501220166E3C501320176E3D50142014
:104E5800186E000E1524326E000E1620336E010EE9
:104E68001720346E000E1820356E40C036F041C051
:104E780037F0386A396A3A6A3B6A3C6A3D6AF06BCD
:104E8800F16B29D00001F051405C0D6EF151415891
:104E98000E6E0F6A106A36500D5C116E37500E5840
:104EA800126E38500F58136E39501058146E3A500D
:104EB8001124326E3B501220336E3C501320346E56
:104EC8003D501420356E3250362633503722345038
:104ED80038223550392232C009F033C00AF034C0C4
:104EE8000BF035C00CF012000001886989698A69E5
:104EF8008B69EFEC27F06CC084F06DC085F06EC054
:104F080086F06FC087F08C6B5AD08C51080D040E58
:104F1800F324D96E030EF420DA6EDE044FE18C51CF
:104F2800080D000EF324D96E030EF420DA6EDE505D
:104F3800845DDE508559DE508659DE5087590DE371
:104F48008C51080D000EF324D96E030EF420DA6E8E
:104F5800DE6ADE6ADE6ADD6A31D08C51080D000E29
:104F6800F324D96E030EF420DA6E8451DE5E855187
:104F7800DE5A8651DE5A8751DE5A8C51080D000ED2
:104F8800F324D96E030EF420DA6E8851DE5C895161
:104F9800DE588A51DE588B51DE5810E28C51080DCC
:104FA800000EF324D96E030EF420DA6EDECF88F0FB
:104FB800DECF89F0DECF8AF0DECF8BF08C2BF2517A
:104FC8008C5DA3E388C07CF089C07DF08AC07EF048
:104FD8008BC07FF012004CEC3BF064C040F065C021
:104FE80041F049043DE1496AF051405C706FF1516C
:104FF8004158716F726BD8A072077251736F365037
:10500800705D746F37507159756F38507259766F7B
:1050180039507359776F3A507425786F3B50752122
:10502800796F3C5076217A6F3D5077217B6F000E67
:105038007825326E000E7921336E010E7A21346E96
:10504800000E7B21356E40C036F041C037F0386A1B
:10505800396A3A6A3B6A3C6A3D6AF06BF16B28D060
:10506800F051405C706FF1514158716F726B736B06
:105078003650705D746F37507159756F385072596A
:10508800766F39507359776F3A507425326E3B50AA
:105098007521336E3C507621346E3D507721356E44
:1050A8003250362633503722345038223550392280
:1050B80032C06CF033C06DF034C06EF035C06FF0A4
:1050C8001200256826682768286800EC27F009C0C0
:1050D80021F00AC022F00BC023F00CC024F0296A8A
:1050E8005AD02950080D040EF324D96E030EF4206B
:1050F800DA6EDE044FE12950080D000EF324D96E54
:10510800030EF420DA6EDE50215CDE502258DE50A9
:105118002358DE5024580DE32950080D000EF324BF
:10512800D96E030EF420DA6EDE6ADE6ADE6ADD6AA4
:1051380031D02950080D000EF324D96E030EF42047
:10514800DA6E2150DE5E2250DE5A2350DE5A245099
:10515800DE5A2950080D000EF324D96E030EF420F0
:10516800DA6E2550DE5C2650DE582750DE5828506F
:10517800DE5810E22950080D000EF324D96E030EF4
:10518800F420DA6EDECF25F0DECF26F0DECF27F072
:10519800DECF28F0292AF251295CA3E325C019F0B3
:1051A80026C01AF027C01BF028C01CF0120000010E
:1051B800826F816B82C077F0786BD0EC3AF07729F8
:1051C800836F83C080F054D0846B47D084510E0D18
:1051D800040EF324D96E040EF420DA6EDE043BE1EB
:1051E80084510E0D080EF324D96E040EF420DA6EE5
:1051F800DE50DE10DE10DE102EE184510E0D050E9D
:10520800F324D96E040EF420DA6EDF500F0B000180
:105218007C6F7C510201DF5D1EE3000184510E0D9D
:10522800050EF324D96E040EF420DA6EDF380F0B66
:105238007C6F0201DF5100017C5D0DE379510AE1C9
:1052480084510E0D0C0EF324D96E040EF420DA6E80
:10525800DE0401E183070001842B8251845D02E2B0
:105268008351B4E18051831903E1090E816F02D0A3
:105278008351AAE1845107E084057AC0D9FF7BC035
:10528800DAFFDF6E02D0090E816F8151120071C002
:1052980064F072C065F073C066F074C067F0090E00
:1052A8000001686F3D0E696F6A6B6B6B1BEC31F028
:1052B80064C079F065C07AF066C07BF067C07CF0A6
:1052C80071C064F072C065F073C066F074C067F0B6
:1052D800090E686F3D0E696F6A6B6B6B90EC33F06B
:1052E80064C075F065C076F066C077F067C078F086
:1052F8007BC07CF07AC07BF079C07AF0796B77C09C
:1053080078F076C077F075C076F0756B75C064F08C
:1053180076C065F077C066F078C067F0090E686FF0
:105328003D0E696F6A6B6B6B1BEC31F064C075F0F6
:1053380065C076F066C077F067C078F07551792758
:1053480076517A2377517B2378517C237BC066F092
:10535800060E3DEC3BF07AC066F0070E3DEC3BF0E4
:1053680079C066F0080E3DEF3BF06E6F00016951A1
:1053780008E1060E6E19D8B41200070E6E1901E185
:105388001200070E6E17010E691741EC3AF06F6FA5
:105398006FAF03D0010E6B6F01D06B6B6F51070BB2
:1053A8006D6F6B51691918E06D5108E06F51F80B7A
:1053B800666F010E3DEC3BF000016D6B695103E136
:1053C800780E6F1704D06F51780B80096F6F6FC01C
:1053D80066F0010E3DEC3BF000016D516E19D8B43A
:1053E80012006E5112E06A0510E1410E41EC3AF0EC
:1053F8006C6F695103E1300E6C1302D0CF0E6C173D
:105408006CC066F0410E3DEC3BF0F80E00016F17E2
:105418006E516F136FC066F0010E3DEC3BF000015A
:105428006A05D8A412006E5105E04EEC3DF0000963
:10543800FCE01200010E646F656B666B676BDCEF56
:1054480039F0120E41EC3AF0E96F700E666F120EE9
:105458003DEC3BF00001E951500B500AD8A4120072
:105468000101A2516AEC3BF01C0E41EC3AF0EA6FE4
:105478000101955104E00001E9ABEAAD37D0130E04
:1054880041EC3AF001019D6F0001666B0D0E3DEC99
:105498003BF05FEC3DF0000E19EC3DF00001EA6BCB
:1054A8000DD0EA5101019E25D96E000E9F21DA6EBA
:1054B800FF0E19EC3DF0DF6E0001EA2B01019D5152
:1054C8000001EA5DEEE35DEC3DF001019C85190EFB
:1054D80041EC3AF00101AB6F040E0001646F010169
:1054E800AB512BEC35F00101AB6F02D001019C8769
:1054F80091C169F0000E00016A6FB9EC29F0010151
:105508009C939EC16FF19FC170F19DC171F144EFF1
:1055180000F000016A6F0101965127E100016A510C
:10552800800A830F02E2FD0E6A6F6A51800A700FCB
:1055380002E30F0E6A6F4D0E41EC3AF0696FF80EF8
:105548006917698569C066F04D0E3DEC3BF00001B6
:105558006AAF05D0030E6A276A51200902D06A5142
:105568007009666F090E3DEF3BF000016A51800A31
:105578007E0F02E2020E6A6F6A51800A6C0F02E324
:10558800140E05D06A51800A6E0F02E3110E6A6F7D
:105598000B0E41EC3AF0686F4D0E41EC3AF0696F32
:1055A800F80E6917140E6A1906E1070E69130F0E33
:1055B8006A6F689B04D06985FE0E6A27688B69C08C
:1055C80066F04D0E3DEC3BF000016A518009666FB4
:1055D800090E3DEC3BF068C066F00B0E3DEF3BF06A
:1055E800020103B159D048EC3DF0556E55B250D088
:1055F80002010251F00B0509026F2EEC3BF04BEC57
:105608003DF018C276F019C277F01AC278F01BC2C2
:1056180079F002011C512EEC3AF00201125131E1ED
:10562800470E1C25F66EF76AFE0EF722F86A000E82
:10563800F8220800F5500001966F976B08EC16F0F9
:1056480096C04BF097C04CF04B504C102DE0A3EC9B
:105658003CF09CEC3CF001017251731125E0000E06
:105668000001646B656B666B676B01D81DD0050024
:10567800FA6E01017251FD6E7351FE6EFF6AFA50A7
:1056880012000251F00B0909026F62EC32F00CD0E3
:10569800010E0201F16F08D000A502D00095029911
:1056A8009CEC3CF0A3EC3CF0E55212000001E36FE7
:1056B800020103A102BF120002A9120001016B51ED
:1056C80003E16E5101E0120019EC36F0E16F0101BF
:1056D8006E510001E15D01E212000201062908E1B4
:1056E800072906E1082904E1092902E104831200D7
:1056F80002510F0B03E0125101E11200010EC1EC3F
:1057080033F0E26FE25101E01200020E02011219B9
:1057180002E12EEC3BF06BC166F16CC167F16DC123
:1057280068F16EC169F101016A6B0001E3519EECF9
:105738000DF0F00E0001966F040E976FD4C298F02A
:1057480000EC18F096519711D8A412000201062B0C
:10575800000E0723082309230001E30502E10201E3
:1057680000810201008B0251F00B0109026F120047
:1057780000016A6B6B6B53D06B51020DA80EF324BA
:10578800D96E020EF420DA6EDE2848E0FE0E646F51
:1057980065696B51020DA80EF324D96E020EF42030
:1057A800DA6EDF50666F676B645166276551672351
:1057B800560E6625F66EFE0E6721F76EF86A000E25
:1057C800F8220800F5506AC068F0696B6827000E77
:1057D800692369BF05D0695127E1100E685D24E28D
:1057E800FE0E646F65696B51020DA80EF324D96E25
:1057F800020EF420DA6EDF50666F676B645166271D
:1058080065516723560E6625F66EFE0E6721F76E04
:10581800F86A000EF8220800F5506A276B2B02017F
:10582800A75100016B5DA8E36A511200EA0E00015E
:10583800646F580E656F666B0201E2513FEC39F0F8
:10584800E80E646F550E656F666B0201E3513FEC1D
:1058580039F0380E646F400E656F666B0201E751D0
:105868003FEC39F0EA0E646F580E656F666B020103
:10587800E4513FEC39F0E80E646F550E656F666BC6
:105888000201E5513FEC39F0120E646F4C0E656F62
:10589800666B0201E8513FEC39F0200E646F760E1A
:1058A800656F666B0201E6513FEC39F01E0E646FBE
:1058B800630E656F666B0201EA513FEC39F0CC0E5E
:1058C800646F470E656F666B0201F3513FEC39F068
:1058D8002A0E646F240E656F666B0201E9513FEF73
:1058E80039F0E652E652E652E652020103B14ED0D2
:1058F800020E121902E12EEC3BF00201EF51175D86
:1059080004E3EF51175D176F01D0176B7BEC3CF088
:1059180064C052F065C053F066C054F067C055F0DB
:10592800FC0E52C0E3FFFD0E53C0E3FFFE0E54C051
:10593800E3FFFF0E55C0E3FF0251F00B0309026FAE
:105948004BEC3DF0E150FC0FD96EE250DA6EFF0EE1
:10595800DA22DECF76F0DECF77F0DECF78F0DECF5A
:1059680079F0020117512EEC3AF0470E0201172583
:10597800F66EF76AFE0EF722F86A000EF8220800A3
:10598800F5500001966F976B08EC16F0FB0EE126B8
:10599800FF0EE222FF0C070EEB6FEC6B0001656B4C
:1059A8004ED065510E0D050EF324D96E040EF42069
:1059B800DA6EDF500F0B0001646F0201EB5100013A
:1059C800645D16E265510E0D040EF324D96E040EC3
:1059D800F420DA6EDE040CE165510E0D050EF32499
:1059E800D96E040EF420DA6EDF500F0B0201EB6F54
:1059F800000165510E0D050EF324D96E040EF42036
:105A0800DA6EDF380F0B0201EC6117D00001655127
:105A18000E0D040EF324D96E040EF420DA6EDE04A3
:105A28000CE165510E0D050EF324D96E040EF42019
:105A3800DA6EDF380F0B0201EC6F0001652B0201F3
:105A4800ED510001655DADE31200F29E0001E86BC7
:105A580050D0E851080D040EF324D96E030EF4203B
:105A6800DA6EDE0444E1E851080D000EF324D96E25
:105A7800030EF420DA6EDE50DE10DE10DE1037E1A1
:105A8800E851080D040EF324D96E030EF420DA6EE3
:105A9800DF6AE851080D060EF324D96E030EF420D0
:105AA800DA6EDE50DE1023E0F28EE851080D050EA6
:105AB800F324D96E030EF420DA6EDF50E66EE85157
:105AC800080D060EF324D96E030EF420DA6EDECF2D
:105AD800E4F0DDCFE5F001D809D00500FA6EE45115
