:0400000040EF00F0DD
:10000800FACF34F0FBCF35F0E1CF36F0E2CF37F05E
:10001800D9CF38F0DACF39F0F3CF3AF0F4CF3BF05C
:1000280019EEBCF0F0B6F0A003D01AEC52F013D0E1
:10003800F0B8F0A203D016EC52F00DD0F2BC9DA09F
:1000480005D09EA003D082EC51F005D0F2B6F2A004
:1000580002D08AEC51F03BC0F4FF3AC0F3FF39C03C
:10006800DAFF38C0D9FF37C0E2FF36C0E1FF35C03C
:10007800FBFF34C0FAFF110016EEFEF01EEF3EF053
:1000880024EC52F0020103B165EF07F0EEC0D9FF8E
:10009800EFC0DAFFDF500101686F01016839E8320B
:1000A800070BE806D8A4F8D002011D51D8A4F4D053
:1000B8000001F00534D001016E510001F16FF26BBF
:1000C8000001F11FF21FF14BF22B0001F05100016A
:1000D800F36FF46B0001F1510001F3270001F251B5
:1000E8000001F4230001F3510001EE250001916F96
:1000F8000001F4510001EF210001926F420E00014E
:10010800936F020E0001946F13EC4DF0100E010175
:100118006E6504D0100E01016E5F03D0000E010160
:100128006E6F01016E510101D8A4C5D7420E0001BE
:10013800DB6F020E0001DC6FEEC0DDF0EFC0DEF019
:100148000001F051FC0F0001DF6F6BEC47F0DBC0E2
:1001580071F1DCC072F1DDC073F1DEC074F1EEC084
:100168006EF0EFC06FF0F0C070F046EC46F06EC075
:1001780069F16FC06AF170C06BF171C06CF1010177
:1001880071510101691910E10101725101016A19E6
:100198000BE10101735101016B1906E10101745171
:1001A80001016C19D8B413D0020102510F0B050AD2
:1001B800D8B40AD0020102510F0B030AD8A41200C6
:1001C8000201F151D8B4120069EC4DF0120002019D
:1001D80002510F0B030AD8A404D00201E35161ECC9
:1001E8004FF0EEC075F1EFC076F1010120EE07F097
:1001F8007551D9267651DA22DECF1EF2DECF1FF2F4
:10020800DECF20F2DECF21F2010120EE0CF0755195
:10021800D9267651DA22DF500F0B39EC4BF0010169
:1002280020EE0BF07551D9267651DA220101DF381C
:10023800070B0001646F010120EE0BF07551D92600
:100248007651DA220101DF500F0B65EC50F075C1D1
:10025800AAF076C1ABF00001F0516DEC23F075C146
:10026800A5F076C1A6F0B0EC40F0000EE66ED8EC32
:1002780032F0000E0201066F000E076F000E086FC5
:10028800000E096F000E02010A6F000E0B6F000EC0
:100298000C6F000E0D6F120001016839E832070B70
:1002A800030AD8B408D001016839E832070B050AF7
:1002B800D8A462EF07F0000E0201A76FEEC078F134
:1002C800EFC079F1020E02011219D8A463D201011C
:1002D80020EE01F07851D9267951DA2202016251D3
:1002E800DE180CE102016351DE1808E102016451D5
:1002F800DE1804E102016551DE18D8A44BD20201D0
:1003080004A548D278C164F079C165F070EC44F076
:100318000009D8A408D002010251F00B0909026FA4
:10032800FEEC44F01200010120EE06F07851D926C7
:100338007951DA22DECFF1F0DDCFF2F0F1C06EF0C4
:10034800F2C06FF00001706B716B0001F051FC0F8F
:100358000001726F490E0001736F010E0001746F86
:10036800010E0FEC36F0EF0E0001646F050E000170
:10037800656FC20E0001666F010E0001676F000E07
:100388000001696F100E686F07EC49F0FF0E00015D
:10039800646F050E0001656FEEC066F0EFC067F090
:1003A800FC0E0001F0250001686F0001696BFF0E6B
:1003B800692307EC49F0660E0001CD6F020E0001BB
:1003C800CE6FC20E0001CF6F010E0001D06FEF0E8D
:1003D8000001D16F050E0001D26F0001F0510C0F22
:1003E8000001D36F13EC16F0710E0001646F010E5B
:1003F8000001656FC20E0001666F010E0001676F94
:10040800000E0001696F040E686F07EC49F0EEC03A
:100418006EF0EFC06FF0F0C070F046EC46F06EC0C2
:1004280069F16FC06AF170C06BF171C06CF10101C4
:1004380069510101711910E101016A510101721933
:100448000BE101016B510101731906E101016C51C6
:1004580001017419D8B408D002010251F00B09093E
:10046800026FFEEC44F01200010120EE06F0785114
:10047800D9267951DA2202010E51DE5C02010F51B0
:10048800DE58D8A05AD0010120EE06F07851D926BE
:100498007951DA22DECFF1F0DDCFF2F022EE0EF064
:1004A800DECFF3F0DDCFF4F00001F31FF41FF34BC0
:1004B800F42B0001F1510001F3270001F251000172
:1004C800F4230001F35102019E5D0001F451020181
:1004D8009F59D8B026D00101865101018711D8B49F
:1004E80018D0000E0001676F000E0001686F000E43
:1004F8000001696F050E00016A6F01D80AD0050076
:10050800FA6E01018651FD6E8751FE6EFF6AFA5040
:10051800120002010251F00B0909026FFEEC44F0CF
:100528001200010120EE06F07851D9267951DA221D
:10053800DECF0EF2DDCF0FF241D0010120EE06F042
:100548007851D9267951DA22DE50DE10D8A410D09D
:1005580002010E290DE102010F29D8A409D0000ECD
:1005680002010F6F000E0E6F0201104B112B26D0E7
:100578000101865101018711D8B418D0000E00017D
:10058800676F000E0001686F000E0001696F050EAD
:1005980000016A6F01D80AD00500FA6E0101865180
:1005A800FD6E8751FE6EFF6AFA5012000201025179
:1005B800F00B0909026FFEEC44F0120002010E294B
:1005C80030E102010F292DE1020110292AE102017F
:1005D8001129D8A426D00101865101018711D8B468
:1005E80018D0000E0001676F000E0001686F000E42
:1005F8000001696F050E00016A6F01D80AD0050075
:10060800FA6E01018651FD6E8751FE6EFF6AFA503F
:10061800120002010251F00B0909026FFEEC44F0CE
:100628001200020102510F0B080AD8A409D00201D6
:10063800E45161EC4FF00201E55161EC4FF00AD052
:10064800020102510F0B030AD8A404D00201E5519C
:1006580061EC4FF0080E0001EE250001EE6F000E70
:100668000001EF210001EF6F0001F0510001F16F6F
:10067800F26B010120EE05F07851D9267951DA2282
:100688000101DF500F0B0001F36FF46B0C0E00013A
:10069800F327000EF4230001F1510001F31906E1DC
:1006A8000001F2510001F419D8B441D0EEC0D9FFCD
:1006B800EFC0DAFFDF500101666F0001EE4BEF2B50
:1006C8000001F051F40F0101776F190E01016D6FF0
:1006D800EEC0A5F0EFC0A6F0010177050001A76FF5
:1006E800010E0001A86F0EC2A9F00FC2AAF010C235
:1006F800ABF011C2ACF0760E0001AD6F020E000136
:10070800AE6F6DC1AFF0EF0E0001B06F050E0001C6
:10071800B16F010E0001B26F22EC2AF0FF0E00014A
:10072800EE2501016F6FFF0E0001EF2107D0000ECB
:100738000101776F000E01016F6F000E0101706FEC
:1007480002010383020102910293029502970101BB
:10075800865101018711D8B415D06FC167F070C1F7
:1007680068F077C169F0010E00016A6F01D80AD0FC
:100778000500FA6E01018651FD6E8751FE6EFF6A13
:10078800FA50120002010251F00B0909026FFEEC47
:1007980044F01200010120EE01F07851D926795178
:1007A800DA2202011E51DE180DE102011F51DE1886
:1007B80009E102012051DE1805E102012151DE188C
:1007C800D8B40FD026EC44F0020E02011219D8A4B6
:1007D800120002010251F00B0909026FFEEC44F00D
:1007E8001200010120EE06F07851D9267951DA225B
:1007F800DECFF1F0DDCFF2F0F1C06EF0F2C06FF0B5
:100808000001706B716B0001F051FC0F0001726FF9
:10081800490E0001736F000E0001746F010E0FEC9A
:1008280036F0EF0E0001646F050E0001656FC20E11
:100838000001666F010E0001676F000E0001696F0D
:10084800100E686F07EC49F0FF0E0001646F050E8B
:100858000001656FEEC066F0EFC067F0FC0E0001A6
:10086800F0250001686F0001696BFF0E692307EC32
:1008780049F0220E0001CD6F020E0001CE6FC20EAC
:100888000001CF6F010E0001D06FEF0E0001D16F94
:10089800050E0001D26F0001F0510C0F0001D36F5B
:1008A80013EC16F0710E0001646F010E0001656F04
:1008B800C20E0001666F010E0001676F000E000195
:1008C800696F040E686F07EC49F0EEC06EF0EFC078
:1008D8006FF0F0C070F046EC46F06EC069F16FC082
:1008E8006AF170C06BF171C06CF1010169510101CD
:1008F800711910E101016A51010172190BE101013D
:100908006B510101731906E101016C510101741960
:10091800D8B40FD026EC44F0020E02011219D8A464
:10092800120002010251F00B0909026FFEEC44F0BB
:100938001200010120EE06F07851D9267951DA2209
:1009480002010A51DE5C02010B51DE58D8A06CD0BE
:10095800010120EE06F07851D9267951DA22DECF4E
:10096800F1F0DDCFF2F022EE0AF0DECFF3F0DDCFCA
:10097800F4F00001F31FF41FF34BF42B0001F151C5
:100988000001F3270001F2510001F4230001F351A3
:1009980002019C5D0001F45102019D59D8B038D084
:1009A800020100910201029102930295029701014E
:1009B800865101018711D8B41AD00201009B000E9C
:1009C8000001676F000E0001686F000E0001696F7B
:1009D800000E00016A6F01D80AD00500FA6E010105
:1009E8008651FD6E8751FE6EFF6AFA5012000201B1
:1009F800039302010483020E02011219D8A4120003
:100A080002010251F00B0909026FFEEC44F01200DA
:100A1800010120EE06F07851D9267951DA22DECF8D
:100A28000AF2DDCF0BF230D0010120EE06F078514A
:100A3800D9267951DA22DE50DE10D8A416D0020168
:100A48000A2913E102010B29D8A40FD0010120EED5
:100A580006F07851D9267951DA22DECF0AF2DDCFB5
:100A68000BF202010C4B0D2B0FD026EC44F0020EBA
:100A780002011219D8A4120002010251F00B09094F
:100A8800026FFEEC44F0120002010A2919E102018A
:100A98000B2916E102010C2913E102010D29D8A442
:100AA8000FD002010483020E02011219D8A4120009
:100AB80002010251F00B0909026FFEEC44F012002A
:100AC800020102510F0B030AD8A404D00201E55118
:100AD80061EC4FF0010E0201D86F78C164F079C162
:100AE80065F073EC48F0010120EE05F07851D92645
:100AF8007951DA220101DF500F0B0009D8B41DD05B
:100B0800080E010178250001B46F000E010179215A
:100B18000001B56F010120EE05F07851D926795111
:100B2800DA220101DF500F0B0001B66F2BEC1AF02F
:100B3800B4C0EEF0B5C0EFF00AD0080E0001EE2503
:100B48000001EE6F000E0001EF210001EF6F0001C0
:100B5800F0510001F16FF26B010120EE05F07851C0
:100B6800D9267951DA220101DF500F0B0001F36F0A
:100B7800F46B0C0E0001F327000EF4230001F15171
:100B88000001F31906E10001F2510001F419D8B48B
:100B9800BED0EEC0D9FFEFC0DAFFDF500101666FAB
:100BA8000001EE4BEF2B010120EE05F07851D9261C
:100BB8007951DA220101DF500F0B00080001F025FE
:100BC800F40F0101776F010120EE05F07851D92665
:100BD8007951DA220101DF500F0B190F01016D6FF6
:100BE800010166510101D8B42FD0EEC0A5F0EFC0C5
:100BF800A6F0010177050001A76F010E0001A86F9B
:100C08000AC2A9F00BC2AAF00CC2ABF00DC2ACF03C
:100C1800320E0001AD6F020E0001AE6F6DC1AFF074
:100C2800EF0E0001B06F050E0001B16F000E00015C
:100C3800B26F22EC2AF0FF0E0001EE2501016F6F62
:100C4800FF0E0001EF2160D00001F0510001F16FAB
:100C5800F26B010120EE05F07851D9267951DA229C
:100C68000101DF500F0B0001F36FF46B0D0E000153
:100C7800F327000EF4230001F1510001F35D000198
:100C8800F451800A0001F56F0001F251800A000159
:100C9800F559D8B03CD0EEC0A5F0EFC0A6F00101E0
:100CA80077050001A76F010E0001A86F0AC2A9F01D
:100CB8000BC2AAF00CC2ABF00DC2ACF0220E0001C0
:100CC800AD6F020E0001AE6F6DC1AFF0EF0E000107
:100CD800B06F050E0001B16F000E0001B26F22EC7B
:100CE8002AF0EEC0B4F0EFC0B5F0010177050001BD
:100CF800B66F2BEC1AF0B4C0EEF0B5C0EFF007D029
:100D0800000E01016F6F000E0101706F04D0000E1C
:100D18000101776FF5D7010E0201D86F000E0201AD
:100D2800D16F000ED06F000E0201EE6F0201009924
:100D380002010383020100A162D0010120EE05F047
:100D48007851D9267951DA220101DFAA55D002015A
:100D580000910201029102930295029701018651C6
:100D680001018711D8B417D00201009B6FC167F049
:100D780070C168F077C169F0010E00016A6F01D88F
:100D88000AD00500FA6E01018651FD6E8751FE6E8C
:100D9800FF6AFA50120002010393020102AB81D0EC
:100DA800020100BB7ED0020100B303D0020100A7FC
:100DB80078D0010E0001B36F670E0001B46F010E09
:100DC8000001B56F0201ED5129EC32F00009D8A4F9
:100DD80010D0000E0001E76F000E0001E86F000E52
:100DE8000001E96F000E0001EA6F000EE1EC3BF034
:100DF80053D01AEC2CF055D008EC46F052D0020132
:100E0800029102930295029701018651010187110F
:100E1800D8B417D00201009B6FC167F070C168F0A9
:100E280077C169F0010E00016A6F01D80AD0050088
:100E3800FA6E01018651FD6E8751FE6EFF6AFA5007
:100E48001200020102AB2DD0020100BB2AD0020120
:100E580000B303D0020100A724D0010E0001B36F34
:100E6800670E0001B46F010E0001B56F0201ED516C
:100E780029EC32F00009D8A412D0000E0001E76F67
:100E8800000E0001E86F000E0001E96F000E00017E
:100E9800EA6F000EE1EC3BF00201009702D01AEC79
:100EA8002CF0020E02011219D8A4120002010251FC
:100EB800F00B0909026FFEEC44F0120026EC44F036
:100EC80012000101865101018711D8B4120021ECEA
:100ED80052F00001F16F0001F1B715D0EEC067F0D4
:100EE800EFC068F0F0C069F0030E00016A6F01D826
:100EF80012000500FA6E01018651FD6E8751FE6EE3
:100F0800FF6AFA501200EEC067F0EFC068F0F0C058
:100F180069F0020E00016A6F01D812000500FA6E2E
:100F280001018651FD6E8751FE6EFF6AFA5012006C
:100F3800020103B1BEEF0BF0000E0001D56F000EE9
:100F48000001D66F000ED76F000ED86F000ED96F54
:100F58000001E269E369E469E569000E0201F16FE5
:100F680002010251F00B0209026FDAC2E6F0020137
:100F780000A5D2D002011751010D770EF324F66EA9
:100F8800FF0EF420F76EF86A000EF8220800F5CF7D
:100F9800C1F0020198510001C1250001C26F000E85
:100FA8000001C1BFFF0E020199210001C36F0001BA
:100FB800C46B0001C56B0C0ED8900001C237C33753
:100FC800C437C537E82EF8D7C2C064F0C3C065F08F
:100FD800C4C066F0C5C067F07D0E0001686F000EE2
:100FE800696F000E6A6F000E6B6F99EC3FF064C07A
:100FF80071F065C072F066C073F067C074F00201EA
:10100800E25170EC4AF002011C51010D770EF324F5
:10101800F66EFF0EF420F76EF86A000EF82208004C
:10102800F5CFC1F002019A510001C1250001C26F3C
:10103800000E0001C1BFFF0E02019B210001C36F1A
:101048000001C46B0001C56B0C0ED8900001C237BB
:10105800C337C437C537E82EF8D7C2C064F0C3C059
:1010680065F0C4C066F0C5C067F07D0E0001686F0A
:10107800000E696F000E6A6F000E6B6F99EC3FF0FF
:1010880064C071F065C072F066C073F067C074F038
:101098000201E35170EC4AF00201E25106EC42F021
:1010A8000201E35106EC42F0DBC29EF0DCC29FF085
:1010B8000001A06BA16BD60E0001A26F0B0EA36FEF
:1010C800000EA46F000EA56FBFEC46F0FF0E0001E6
:1010D8009E250001DA6FFF0E00019F210001DB6FE2
:1010E800FF0E0001A0210001DC6FFF0E0001A1210D
:1010F8000001DD6FDAC09EF0DBC09FF0DCC0A0F01D
:10110800DDC0A1F0BFC0A2F0C0C0A3F00001A46B75
:10111800A56BBFEC46F0FDD002011751010D770E0B
:10112800F324F66EFF0EF420F76EF86A000EF8222C
:101138000800F5CFC1F0020194510001C12500015A
:10114800C26F000E0001C1BFFF0E02019521000110
:10115800C36F0001C46B0001C56B0C0ED890000171
:10116800C237C337C437C537E82EF8D7C2C064F0D2
:10117800C3C065F0C4C066F0C5C067F07D0E00014D
:10118800686F000E696F000E6A6F000E6B6F99EC46
:101198003FF064C071F065C072F066C073F067C05C
:1011A80074F00201E45170EC4AF002011C51010D87
:1011B800770EF324F66EFF0EF420F76EF86A000E31
:1011C800F8220800F5CFC1F0020196510001C125AF
:1011D8000001C26F000E0001C1BFFF0E020197217E
:1011E8000001C36F0001C46B0001C56B0C0ED890E1
:1011F8000001C237C337C437C537E82EF8D7C2C095
:1012080064F0C3C065F0C4C066F0C5C067F07D0E69
:101218000001686F000E696F000E6A6F000E6B6F39
:1012280099EC3FF064C071F065C072F066C073F06D
:1012380067C074F00201E55170EC4AF00201E45114
:1012480006EC42F002011251D8A404D00201E55183
:1012580006EC42F00001E6510E0D060EF326000ED4
:10126800F422000EF324D96E040EF420DA6EDECFD9
:10127800C1F0DDCFC2F00001C1510001C36F000110
:10128800C2510001C46F0001C56B0001C66B010E9D
:101298000001C32500019E6F000E0001C42100015A
:1012A8009F6F000E0001C5210001A06F000E000114
:1012B800C6210001A16FDBC2A2F0DCC2A3F00001CD
:1012C800A46BA56BBFEC46F0FF0E00019E25000144
:1012D800DA6FFF0E00019F210001DB6FFF0E000196
:1012E800A0210001DC6FFF0E0001A1210001DD6FCC
:1012F800DAC09EF0DBC09FF0DCC0A0F0DDC0A1F03A
:10130800BFC0A2F0C0C0A3F00001A46BA56BBFECE6
:1013180046F00001E6510E0D080EF326000EF422E9
:10132800000EF324D96E040EF420DA6E00019EC07C
:10133800DEFF00019FC0DEFF0001A0C0DEFF00014C
:10134800A1C0DEFF0201E951B5EC4EF00009D8B4A6
:1013580094D00201E95161EC4FF00201E95196EC99
:101368004CF095C0DEF096C0DFF097C0E0F098C072
:10137800E1F00001E1510BE11F0E0001DE5DAC0E52
:101388000001DF59DF0E0001E059D8A026D0DEC0E9
:10139800C1F0DFC0C2F0E0C0C3F0E1C0C4F00D0E80
:1013A80006D00001D890C433C333C233C133E82E0A
:1013B800F8D7C1C09EF0C2C09FF0C3C0A0F0C4C09F
:1013C800A1F07D0E0001A26F000EA36F000EA46FA6
:1013D800000EA56FBFEC46F01ED0DEC09EF0DFC049
:1013E8009FF0E0C0A0F0E1C0A1F07D0E0001A26F67
:1013F800000EA36F000EA46F000EA56FBFEC46F0A1
:101408000D0E07D00001D890A133A03300019F33FF
:101418009E33E82EF7D79EC0CDF09FC0CEF0A0C077
:10142800CFF0A1C0D0F0CDC0C1F0CEC0C2F0CFC0C7
:10143800C3F0D0C0C4F00001C11FC21FC31FC41F26
:10144800C12B000EC223C323C4230201C8510001CB
:10145800C1250001D66F0201C9510001C221000156
:10146800D76F0201CA510001C3210001D86F0201E0
:10147800CB510001C4210001D96F000E0001E66FB5
:101488000F0E0001E66501D0F3D00001E6510E0D04
:10149800040EF326000EF422000EF324D96E040E77
:1014A800F420DA6EDE04D8A4E0D00001E6510E0D77
:1014B800080EF326000EF422000EF324D96E040E53
:1014C800F420DA6EDE50DE10DE10DE10D8B4CDD097
:1014D8000001E6510201DA19D8B481D00001E651C1
:1014E8000E0D080EF326000EF422000EF324D96E1A
:1014F800040EF420DA6EDE500001D65DDE500001E5
:10150800D759DE500001D859DE500001D959D8B05A
:1015180055D00001E6510E0D080EF326000EF422F8
:10152800000EF324D96E040EF420DA6EDECFC1F07B
:10153800DECFC2F0DECFC3F0DECFC4F0D6C0C5F038
:10154800D7C0C6F0D8C0C7F0D9C0C8F00001C51FC1
:10155800C61FC71FC81FC52B000EC623C723C82315
:101568000001C1510001C5250001C96F0001C25128
:101578000001C6210001CA6F0001C3510001C72143
:101588000001CB6F0001C4510001C8210001CC6FDC
:101598000001E6510E0D080EF326000EF422000E8F
:1015A800F324D96E040EF420DA6EC9C0DEFFCAC077
:1015B800DEFFCBC0DEFFCCC0DEFF11D00001E6515C
:1015C8000E0D080EF326000EF422000EF324D96E39
:1015D800040EF420DA6EDE6ADE6ADE6ADD6A000175
:1015E800E6510E0D080EF326000EF422000EF32429
:1015F800D96E040EF420DA6EDE500001E25DDE5092
:101608000001E359DE500001E459DE500001E559BC
:10161800D8A02BD00001E6510E0D080EF326000EBF
:10162800F422000EF324D96E040EF420DA6EDE5094
:10163800DE10DE10DE10D8B418D00001E6510E0D11
:10164800080EF326000EF422000EF324D96E040EC1
:10165800F420DA6EDECFE2F0DECFE3F0DECFE4F0A6
:10166800DECFE5F0010E0001D56F0001E62B08D7AB
:101678000001D505D8A471D0E2C0C8F2E3C0C9F210
:10168800E4C0CAF2E5C0CBF20001E5510AE100016D
:10169800E229FF0E0001E3590F0E0001E459D8A01A
:1016A80020D0E2C064F0E3C065F0E4C066F0E5C0B5
:1016B80067F07D0E0001686F000E696F000E6A6F9B
:1016C800000E6B6F99EC3FF00C0ED8900001643758
:1016D800000165370001663700016737E82EF5D746
:1016E80024D0E2C0C1F0E3C0C2F0E4C0C3F0E5C05A
:1016F800C4F00C0ED8900001C137C237C337C437C5
:10170800E82EF8D7C1C064F0C2C065F0C3C066F067
:10171800C4C067F07D0E0001686F000E696F000E8F
:101728006A6F000E6B6F99EC3FF064C0D1F065C032
:10173800D2F066C0D3F067C0D4F0D1C071F0D2C087
:1017480072F0D3C073F0D4C074F00201E95170ECA8
:101758004AF00201E95106EC42F0020E02011219A8
:10176800D8A4120002010251F00B0809026FFEEC26
:1017780044F0120021EC52F00001C16F0001C1A930
:1017880018D0000E0001676F000E0001686F000E90
:101798000001696F020E00016A6F01D8120005008E
:1017A800FA6E01018651FD6E8751FE6EFF6AFA508E
:1017B80012000101865101018711D8B41200000EF0
:1017C8000001676F000E0001686F000E0001696F6D
:1017D800030E00016A6F01D812000500FA6E0101BC
:1017E8008651FD6E8751FE6EFF6AFA501200A4C141
:1017F80069F0000E00016A6F000E70EC35F08CC1C4
:1018080071F08DC172F08EC173F08FC174F064EC09
:101818003AF00101A751CFEC37F00101A405D8A493
:1018280020D29AC166F0390E36EC50F0AEC1ACF059
:10183800010E0001AC170101D890AD350001AD6F64
:101848000101A639F00B0001AD110001AC11000136
:10185800666F1D0E36EC50F0AAC0ACF0ABC0ADF010
:10186800ADC0ACF00001AD6B030E0001AC17A8C110
:10187800AEF0010E0001AE170001D890AE3700019E
:10188800D890AE370101A539F00B0001AE11000167
:10189800AC110001666F1E0E36EC50F00101AA5122
:1018A8000101AB11D8B471D0AAC1B0F0ABC1B1F08D
:1018B8000001B26BB36B4ED0B0C09EF0B1C09FF0C8
:1018C800B2C0A0F0B3C0A1F07D0E0001A26F000E5F
:1018D800A36F000EA46F000EA56FBFEC46F027D0D3
:1018E800B0C09EF0B1C09FF0B2C0A0F0B3C0A1F0EC
:1018F800FA0E0001A26F000EA36F000EA46F000E77
:10190800A56FBFEC46F013D0B0C09EF0B1C09FF0F9
:10191800B2C0A0F0B3C0A1F0F40E0001A26F010E96
:10192800A36F000EA46F000EA56FBFEC46F09EC01B
:10193800B0F09FC0B1F0A0C0B2F0A1C0B3F016D013
:10194800000E0001B06F000EB16F000EB26F000EF6
:10195800B36F0CD00101A651070AD8B4ADD70F0A4E
:10196800D8B4BED7010AD8B4CFD7EAD70101A52980
:101978000001AC6F06D0D8900001B333B233B13355
:10198800B0330001AC2FF7D709D0000E0001B06FBB
:10199800000EB16F000EB26F000EB36FB0C066F0EC
:1019A800240E36EC50F0AAC066F01F0E36EC50F04C
:1019B800260E4DEC4FF00001B46F0C0E0101A51975
:1019C800D8A40AD0070E0101A619D8B40FD0080E62
:1019D8000101A619D8B40AD00B0E0101A519D8A483
:1019E80008D0070E0101A619D8A403D00001B487B6
:1019F80002D00001B4970001B485B4C066F0260E89
:101A080036EC50F0310E4DEC4FF00001B46FF80E8B
:101A18000001B417030E0001B413B4C066F0310E10
:101A280036EC50F00A0E0001666F370E36EC50F0B7
:101A3800120E0101BD19D8A433D0070E0101A61951
:101A4800D8B405D0080E0101A619D8A418D0310EB3
:101A58004DEC4FF00001B46F0001B49FB4C066F0C4
:101A6800310E36EC50F0400E0001666F2F0E36EC4A
:101A780050F0000E0001666F300E36EC50F0090E83
:101A88000101A619D8A40CD0310E4DEC4FF000017D
:101A9800B46F0001B48FB4C066F0310E36EC50F06C
:101AA800330E4DEC4FF00001B46F0001B49D0001FE
:101AB800B481ACC1ACF0010E0001AC17060E0001F8
:101AC800AD6F0001D890AC370001AD2FFAD70001F7
:101AD800AC510001B413B4C066F0330E36EC50F0CC
:101AE800ACC1ACF0010E0001AC170001D890AC37C6
:101AF8000001D890AC35FF0A1D0B0001B46FB4C0CB
:101B080066F03B0E36EC50F0010199510001666F0A
:101B1800200E36EC50F098C166F0210E36EC50F0ED
:101B2800000E0001666F0D0E36EC50F0000E00013D
:101B3800666F0E0E36EC50F0000E0001666F0F0E49
:101B480036EC50F0120E0101BD19D8A483D0090E4D
:101B58000101A619D8A428D0800E01018C5D130EAE
:101B680001018D59610E01018E59330E01018F5902
:101B7800D8A01AD001018C05F70E01018D59CB0EA2
:101B880001018E593C0E01018F59D8B00DD0020EBB
:101B98000001666F360E36EC50F0640E0001666F79
:101BA8003A0E36EC50F034D0090E0101A619D8A42B
:101BB80029D0800E01018C5D1A0E01018D59700E1D
:101BC80001018E59180E01018F59D8A01BD0410E62
:101BD80001018C5DDD0E01018D594A0E01018E59FE
:101BE8001F0E01018F59D8B00DD0020E0001666F8B
:101BF800360E36EC50F07F0E0001666F3A0E36EC6A
:101C080050F006D0030E0001666F360E36EC50F029
:101C1800090E0101A619D8A411D00101AC05D8A458
:101C28000DD0650E0001666F3A0E36EC50F0190EB5
:101C38000001666F3B0E36EC50F00CD0650E0001CB
:101C4800666F3A0E36EC50F01D0E0001666F3B0EC3
:101C580036EC50F0FF0E0001666F120E36EC50F0B5
:101C6800120090C171F091C172F092C173F093C1EA
:101C780074F0A2EC47F094C171F095C172F096C16E
:101C880073F097C174F00CEC48F001019951000110
:101C9800666F250E36EC50F098C166F0260E36ECCD
:101CA80050F00A0E4DEC4FF00001B46F9F0E00018A
:101CB800B4170101BF39E846E00B0001B413B4C002
:101CC80066F00A0E36EC50F0C80E0001B46F010140
:101CD800A851D8B402D00001B489B4C066F0300E5F
:101CE80036EC50F0000E0001AF6F13D00001AF5179
:101CF800010D9B0EF324D96E010EF420DA6EDF502D
:101D08000001666F0001AF51280F36EC50F000015A
:101D1800AF2B0101A3510001AF5DD8A0E7D70101A6
:101D2800A351D8B409D00101A30510090001666FB9
:101D3800270E36EC50F006D0000E0001666F270E15
:101D480036EC50F0FF0E0001666F3E0E36EC50F098
:101D5800FF0E0001666F3F0E36EC50F01200000EC9
:101D68000001716F66C0D9FF67C0DAFFDF5000015C
:101D7800726F000E0001716F93D20001685100016B
:101D8800D8B46DD200017151020DA80EF324D96E9A
:101D9800020EF420DA6EDE28D8B461D266C0D9FF0C
:101DA80067C0DAFFDF500001696F6A6B0001691FC5
:101DB8006A1F694B6A2BFE0E00016B6FFF0E000154
:101DC8006C6F00017151020DA80EF324D96E020E3A
:101DD800F420DA6EDF5000016D6F6E6B00016B51FD
:101DE80000016D2700016C5100016E238E0E000169
:101DF8006D25F66EFF0E6E21F76EF86A000EF8225A
:101E08000800F55072C06FF00001706B00016F2779
:101E1800000E70230001695100016F2700016A510B
:101E280000017023000170BF1AD20001705106E151
:101E3800100E00016F5DD8B039D211D237D200012F
:101E48007251010DF35000016425D96EF450000160
:101E58006521DA6E030EDF6E0001722B00017251EC
:101E6800010DF35000016425D96EF450000165217D
:101E7800DA6E000EDF6E00017151020D000E0001D6
:101E8800696F020E00016A6FA80E00016927000E33
:101E98006A23F35000016927F45000016A23010EF8
:101EA80000016925D96E000E00016A21DA6E02016F
:101EB800DFA00DD000017251010DF350000164251F
:101EC800D96EF45000016521DA6E000EDB80000146
:101ED8007151020D000E0001696F020E00016A6F58
:101EE800A80E00016927000E6A23F3500001692734
:101EF800F45000016A23010E00016925D96E000E15
:101F080000016A21DA6E0201DFA20DD000017251D0
:101F1800010DF35000016425D96EF45000016521CC
:101F2800DA6E000EDB8200017151020D000E000115
:101F3800696F020E00016A6FA80E00016927000E82
:101F48006A23F35000016927F45000016A23010E47
:101F580000016925D96E000E00016A21DA6E0201BE
:101F6800DFA4D9D093D000017251010DF3500001C4
:101F78006425D96EF45000016521DA6E050EDF6E16
:101F88000001722B00017251010DF350000164250C
:101F9800D96EF45000016521DA6E000EDF6E000183
:101FA8007151020D000E0001696F020E00016A6F87
:101FB800A80E00016927000E6A23F3500001692763
:101FC800F45000016A23010E00016925D96E000E44
:101FD80000016A21DA6E0201DFA60DD000017251FC
:101FE800010DF35000016425D96EF45000016521FC
:101FF800DA6E000EDB8000017151020D000E000147
:10200800696F020E00016A6FA80E00016927000EB1
:102018006A23F35000016927F45000016A23010E76
:1020280000016925D96E000E00016A21DA6E0201ED
:10203800DFA80DD000017251010DF3500001642595
:10204800D96EF45000016521DA6E000EDB820001C2
:102058007151020D000E0001696F020E00016A6FD6
:10206800A80E00016927000E6A23F35000016927B2
:10207800F45000016A23010E00016925D96E000E93
:1020880000016A21DA6E0201DFAA45D0000172510F
:10209800010DF35000016425D96EF450000165214B
:1020A800DA6E000EDB8437D000017251010DF35057
:1020B80000016425D96EF45000016521DA6E060E20
:1020C800DF6E0001722B00017251010DF350000107
:1020D8006425D96EF45000016521DA6EE0C2DFFF95
:1020E8000001722B1EEC52F0800AA00FD8A006D077
:1020F8001EEC52F0800A600FD8A010D00001725177
:10210800010DF35000016425D96EF45000016521DA
:10211800DA6E200E11D00001722BC0D0000172516E
:10212800010DF35000016425D96EF45000016521BA
:10213800DA6E1EEC52F03F0BDF6EEDD700017251E4
:10214800010DF35000016425D96EF450000165219A
:10215800DA6E070EDF6E0001722B00017251010D5D
:10216800F35000016425D96EF45000016521DA6E40
:10217800000EDF6E00017151020D000E0001696F43
:10218800020E00016A6FA80E00016927000E6A237B
:10219800F35000016927F45000016A23010E000181
:1021A8006925D96E000E00016A21DA6E0201DFAEE0
:1021B8000DD000017251010DF35000016425D96E54
:1021C800F45000016521DA6E000EDB8000017151C8
:1021D800020D000E0001696F020E00016A6FA80E61
:1021E80000016927000E6A23F35000016927F450A3
:1021F80000016A23010E00016925D96E000E000155
:102208006A21DA6E0201DFAC86D700017251010D36
:10221800F35000016425D96EF45000016521DA6E8F
:10222800000EDB8278D70201DD69000E0201DE6F45
:1022380000017151020DA80EF324D96E020EF4208C
:10224800DA6E00017251010DF35000016425E96E48
:10225800F45000016521EA6EDFCFEFFF5CD7000183
:102268007151020DA80EF324D96E020EF420DA6E15
:10227800DF50020AD8B4D7D7010AD8B4E0D5070A84
:10228800D8B4D6D7010AD8B46ED6030AD8B40CD7B6
:10229800010AD8B453D70F0AD8B4CAD70001712B92
:1022A8000201A7510001715DD8A067D566C0D9FFAA
:1022B80067C0DAFF72C0DFFF1200000E0001906FE6
:1022C8000F0E0001906501D019D000019051010D49
:1022D800F35000016C25D96EF45000016D21DA6EBF
:1022E80000019051010D760EF324E96E000EF420E2
:1022F800EA6EDFCFEFFF0001902BE2D70A0E4B6E9C
:10230800010E4A6E000E0001906F0F0E00019065DD
:1023180001D01DD000019051010D760EF324D96E25
:10232800000EF420DA6EDF5000016E6F000190514C
:10233800010DF35000016A25D96EF45000016B219C
:10234800DA6E00016E51DF1A0001902BDED7000E05
:102358000001906F0F0E0001906501D02BD0000195
:102368009051010DF35000016A25D96EF450000117
:102378006B21DA6EDF5000016E6F00016E51010DA6
:10238800670EF324F66EFE0EF420F76EF86A000E60
:10239800F82200019051010DF35000016A25D96E11
:1023A800F45000016B21DA6E0800F5CFDFFF000161
:1023B800902BD0D76AC064F06BC065F0E8EC2CF0C5
:1023C8004B04D8B4C5D1000E0001906F0F0E000168
:1023D800906501D0BDD10001905100016E6F6F6B07
:1023E800010E00016E27000E6F2300016E510001DF
:1023F8006A25D96E00016F5100016B21DA6EDF503A
:102408000001706F0001905100016A25D96E00012A
:10241800000E00016B21DA6EDF5000017019000117
:102428008E6F0001905100016E6F6F6B030E0001FB
:102438006E27000E6F2300016E5100016A25D96EC8
:1024480000016F5100016B21DA6EDF500001706FDF
:10245800000190510001716F726B020E000171272B
:10246800000E72230001715100016A25D96E000126
:10247800725100016B21DA6EDF5000017019000102
:102488008F6F00018E5100018F1900018C6F0001C0
:10249800905100016E6F6F6B010E00016E27000EE8
:1024A8006F2300016E5100016A25D96E00016F513A
:1024B80000016B21DA6EDF500001706F000190514E
:1024C8000001716F726B020E00017127000E7223FA
:1024D8000001715100016A25D96E00017251000195
:1024E8006B21DA6EDF500001701900018D6F7F0ECD
:1024F80000018E6512D01B0E8EC06EF000016F6B4E
:10250800D89000016E376F3700016E190001866F91
:1025180000016F510001876F09D0D89000018E35F6
:102528000001866F0001876B0001873786C08EF037
:102538007F0E00018D6512D01B0E8DC06EF000015C
:102548006F6BD89000016E376F3700016E1900016C
:10255800886F00016F510001896F09D0D890000180
:102568008D350001886F0001896B0001893788C0AB
:102578008DF07F0E00018F6512D01B0E8FC06EF09C
:1025880000016F6BD89000016E376F3700016E192C
:1025980000018A6F00016F5100018B6F09D0D8903C
:1025A80000018F3500018A6F00018B6B00018B37AA
:1025B8008AC08FF00001905100016A25D96E000190
:1025C800000E00016B21DA6E0001905100016A25AE
:1025D800E96E0001000E00016B21EA6EEF50000168
:1025E8008C1900018E19DF6E0001905100016E6F89
:1025F8006F6B010E00016E27000E6F2300016E51F4
:1026080000016A25D96E00016F5100016B21DA6E55
:10261800000190510001706F716B010E000170276D
:10262800000E71230001705100016A25E96E000156
:10263800715100016B21EA6EEF5000018C19000105
:102648008D19DF6E0001905100016E6F6F6B020EE5
:1026580000016E27000E6F2300016E5100016A25EC
:10266800D96E00016F5100016B21DA6E00019051A3
:102678000001706F716B020E00017027000E71234C
:102688000001705100016A25E96E000171510001D5
:102698006B21EA6EEF5000018C1900018F19DF6E73
:1026A8000001905100016E6F6F6B030E00016E27E1
:1026B800000E6F2300016E5100016A25D96E0001DA
:1026C8006F5100016B21DA6E000190510001706FAB
:1026D800716B020E00017027000E7123000170510A
:1026E80000016A25E96E0001715100016B21EA6E53
:1026F800EF500001726F000190510001736F746B0D
:10270800010E00017327000E7423000173510001AC
:102718006A25E96E0001745100016B21EA6EEF50E1
:102728000001756F0001905100016A25E96E0001F2
:10273800000E00016B21EA6EEF50000175190001CF
:10274800721900018C19DF6E040E000190273ED625
:10275800760E0001646F000E0001656F9BEC1DF0A2
:10276800000E0001906F0F0E0001906501D01DD082
:1027780000019051010D760EF324D96E000EF4205D
:10278800DA6EDF5000016E6F00019051010DF350B9
:1027980000016A25D96EF45000016B21DA6E000140
:1027A8006E51DF1A0001902BDED74B064B50D8B480
:1027B8001200CDD50001E26F100E0001E66F000E89
:1027C8000001E56FE30E0001646F000E0001656F04
:1027D800000E0001676F000E666F000E0001696F42
:1027E800010E686F0BEC4EF0E00E0001646F040EF2
:1027F8000001656F000E0001676F000E666F010E25
:102808000001696F0F0E686F0BEC4EF0C20E0001ED
:10281800646F010E0001656F000E0001676F000E06
:10282800666F000E0001696F100E686F0BEC4EF0BA
:102838000001E205D8A408D00001E3511F0B80096C
:10284800E36F0201008105D00001E3511F0B40092D
:10285800E36FFC0E0001E3170001E395E397E399AA
:102868000001E651010DE00EF324D96E040EF420A8
:10287800DA6EE3C0DFFF0001E62B0001E651010D2F
:10288800E00EF3240001646F040EF4200001656F6C
:102898001E0E0001666F020E0001676F000E000138
:1028A800696F040E686F07EC49F00001E651040FE8
:1028B8000001E66F000E0001E46F020102AD4DD089
:1028C8000001E48F0201DF510201EB5DD8B01BD09B
:1028D8000001E48D020100890201D04BD12B0201D5
:1028E800A2510001E06FE16B0201D0510001E01933
:1028F8000DE10201D1510001E119D8A407D0000E61
:102908000201EE6F27D00201009927D00201A251DF
:102918000001E06FE16B0201D0510001E05D0201AE
:10292800D1510001E159D8B015D00201EE2B0201B6
:10293800EE510201A35DD8B010D0000E0201EE6F77
:1029480062EC39F00009D8A408D0000E0201D16F5A
:10295800000ED06F0001E49DD6D7020100A304D079
:102968000001E48B020100930001E4990201A751E0
:10297800D8B406D00001DE510001DF11D8A406D07A
:102988000001E491E493E495E4970CD0E3EC39F08A
:102998000001E06F0001E4510001E019F00BE019BB
:1029A8000001E46F0001E651010DE00EF324D96E39
:1029B800040EF420DA6EE4C0DFFF0001E62B00010C
:1029C800E651010DE00EF3240001646F040EF420BB
:1029D8000001656F060E0001666F020E0001676F49
:1029E800000E0001696F020E686F07EC49F00001E4
:1029F800E651020F0001E66F0201A751D8B417D0C3
:102A08000001DE510001DF11D8B411D0E00E000141
:102A1800646F040E0001656FE60E0001666F000E1C
:102A28000001676F010E0001686FB3EC0EF0000142
:102A3800E651010DE00EF324D96E040EF420DA6E8F
:102A4800DBC0DFFF0001E62B0001DE510001DF11D2
:102A5800D8B43ED00001E651010DE00EF324000188
:102A6800646F040EF4200001656FDCC066F0DDC001
:102A780067F0DEC068F0DFC069F007EC49F0DCC041
:102A8800A5F0DDC0A6F0DEC0A7F0000E0001A86F1B
:102A980006C2A9F007C2AAF008C2ABF009C2ACF09E
:102AA800320E0001AD6F020E0001AE6FE6C0AFF04E
:102AB800E00E0001B06F040E0001B16F000E0001BE
:102AC800B26F22EC2AF00001E6510001DE253FD06A
:102AD8000201A751D8B43DD0EF0E0001646F050E76
:102AE8000001656FE50E0001666F000E0001676F5B
:102AF800000E0001686FB3EC0EF0EF0E0001A56F39
:102B0800050E0001A66FE5C0A7F0000E0001A86F32
:102B180006C2A9F007C2AAF008C2ABF009C2ACF01D
:102B2800220E0001AD6F020E0001AE6FE6C0AFF0DD
:102B3800E00E0001B06F040E0001B16F000E00013D
:102B4800B26F22EC2AF00001E6510001E5250001F0
:102B5800E66F06C26EF007C26FF008C270F009C2D5
:102B680071F00001E651F00F0001726F490E00018B
:102B7800736F000E0001746F000E0FEC36F0E00E5C
:102B88000001646F040E0001656FC20E0001666FDC
:102B9800010E0001676F000E0001696F100E686F6B
:102BA80007EC49F0220E0001CD6F020E0001CE6F36
:102BB800C20E0001CF6F010E0001D06FE00E0001C0
:102BC800D16F040E0001D26FE6C0D3F013EC16F0FB
:102BD8000001E651010DE00EF3240001646F040EBC
:102BE800F4200001656FC20E0001666F010E00013E
:102BF800676F000E0001696F040E686F07EC49F0FB
:102C08000001E651040F0001E66FF00E0001E62511
:102C18000201D46F0201D56BFF0ED5231200000EFE
:102C28000101636F000E0101656F000E0101646F01
:102C3800000E0101626F000E0101606F000E0101BC
:102C4800616FCDC0A5F0CEC0A6F0100E0001A76F31
:102C5800010E0001A86F000E0001A96F010E00010E
:102C6800AA6FB5EC2DF00001D3510001D46FD56BDC
:102C78000F0E0001D427000ED523040E0001D66FD5
:102C88000001D535D533D4330001D62FF9D700014B
:102C9800D4510101636F010163510101D8A404D02B
:102CA800010E0101636F09D0D3C0D4F00F0E0001EB
:102CB800D417D8A402D0010E01D0000E0101626F12
:102CC80001016205D8A457D0000E0101646F01010B
:102CD8006339F00BF00F0101656F28D001016451D1
:102CE800010D200EF324D96E010EF420DA6E0101D5
:102CF8006451010D100EF324E96E010EF420EA6E02
:102D0800EF500001D46F01016551010DF35000012E
:102D1800D125E96EF4500001D221EA6EEF5000018E
:102D2800D419DF6E0101642B0101652B0101635188
:102D38000001D46FD56B0001D43BD53BF00ED517FD
:102D4800D4510F0BD513F00ED417010165510001B2
:102D5800D66FD76B0001D4510001D65D0001D75161
:102D6800800A0001D86F0001D551800A0001D859A6
:102D7800D8B097D0B3D70001D3510F0B0001D46F4F
:102D8800D56B0001D41FD51FD44BD52B0001D351CF
:102D98000001D66FD76B0001D4510001D62700017E
:102DA800D5510001D7230001D6510001D1250101D9
:102DB800606F0001D7510001D2210101616F000E3F
:102DC8000101656F0F0E0101656501D03DD000015D
:102DD800D3510F0B0101656117D001016551010D38
:102DE800F35001016025D96EF45001016121DA6EBA
:102DF80001016551010D300EF324E96E010EF42036
:102E0800EA6EDFCFEFFF1DD00001D3510F0B010198
:102E18006519D8A40BD001016551010D300EF324BA
:102E2800D96E010EF420DA6E800E0AD001016551C8
:102E3800010D300EF324D96E010EF420DA6E000E67
:102E4800DF6E0101652BBED7000E0101656F0F0E05
:102E58000101656501D025D001016551010D200EE4
:102E6800F324D96E010EF420DA6E01016551010DCB
:102E7800000EF324E96E010EF420EA6EEF50000113
:102E8800D46F01016551010D300EF324E96E010E76
:102E9800F420EA6EEF500001D419DF6E0101652BB2
:102EA800D6D7500E0001646F010E0001656F000E49
:102EB8000001676F000E666F000E0001696F100E4B
:102EC800686F0BEC4EF0000E0101656F64D0000EC8
:102ED8000101646F0F0E0101646501D03BD001014F
:102EE8006451010D400EF324D96E010EF420DA6E00
:102EF800010165510001D46FD56B0001D43BD53B6E
:102F0800F00ED517D4510F0BD513F00ED4170101BD
:102F180064510001D427000ED5230001D4510001CB
:102F2800D125E96E0001D5510001D221EA6EEF509A
:102F38000001D66F01016451010D500EF324E96EB2
:102F4800010EF420EA6EEF500001D619DF6E010180
:102F5800642BC0D7500E0001646F010E0001656F2D
:102F6800400E0001666F010E0001676F000E000140
:102F7800696F100E686F07EC49F0500E0001916FF1
:102F8800010E0001926FCDC093F0CEC094F013EC07
:102F98004DF00101652BFF0E0001D46FFF0E0001FB
:102FA800D56F010163510001D66FD76B0001D45171
:102FB8000001D6270001D5510001D7230101655131
:102FC8000001D86FD96B0001D6510001D85D00010E
:102FD800D951800A0001DA6F0001D751800A000137
:102FE800DA59D8A074D7000E0101656F0F0E0101E0
:102FF800656501D025D001016551010D400EF3240E
:10300800D96E010EF420DA6E01016551010D200E12
:10301800F324E96E010EF420EA6EEF500001D46F3C
:1030280001016551010D500EF324E96E010EF420E3
:10303800EA6EEF500001D419DF6E0101652BD6D777
:10304800400E0001916F010E0001926FCDC093F008
:10305800CEC094F013EC4DF0CFC064F0D0C065F052
:10306800400E0001666F010E0001676F000E00013F
:10307800696F100E686F07EC49F012000001CA6909
:10308800CB69CC69CD69020103B1C3D102010251F8
:103098000F0B030AD8A414D002011251D8A406D0E9
:1030A80002010251F00B0409026F1200020E020124
:1030B8001219D8A41200000EE66ED4EC3CF01200EF
:1030C800020100A503D069EC4DF01200020102A92B
:1030D8001200020100A164D00201D9510201D75D9A
:1030E800D8A03ED002010251F00B0609026F02017E
:1030F800A0510001C66F0201A1510001C76F000174
:10310800C86B0001C96B0C0ED8900001C637C737D1
:10311800C837C937E82EF8D7C6C064F0C7C065F00D
:10312800C8C066F0C9C067F07D0E0001686F000E68
:10313800696F000E6A6F000E6B6F99EC3FF064C008
:1031480071F065C072F066C073F067C074F0020178
:10315800E85170EC4AF00201E85106EC42F0120026
:1031680027EC51F00101865101018711D8B41200F2
:10317800000E0001676F000E0001686F000E00016D
:10318800696F000E00016A6F01D812000500FA6E1F
:1031980001018651FD6E8751FE6EFF6AFA501200DA
:1031A8000201D8510201D65DD8A013D10201025103
:1031B800F00B0609026F010E84EC46F00009D8A452
:1031C80038D0F00E0001B56F040E0001B66FD4C2FE
:1031D800B7F0D3EC25F00001B5510001B611D8A421
:1031E80008D00201D82B02010251F00B0109026F2D
:1031F800120004EC51F00101865101018711D8B485
:103208001200000E0001676F000E0001686F000ECB
:103218000001696F000E00016A6F01D812000500F5
:10322800FA6E01018651FD6E8751FE6EFF6AFA50F3
:103238001200000E0001CE6F85D00001CE510E0D98
:10324800040EF326000EF422000EF324D96E040EA9
:10325800F420DA6EDE04D8A473D00001CE510E0D2E
:10326800080EF326000EF422000EF324D96E040E85
:10327800F420DA6EDE50DE10DE10DE10D8B460D036
:103288000001CE510E0D080EF326000EF422000E9A
:10329800F324D96E040EF420DA6EDE500001CA5D04
:1032A800DE500001CB59DE500001CC59DE50000140
:1032B800CD59D8A045D00001CE510E0D050EF326EC
:1032C800000EF422000EF324D96E040EF420DA6EF8
:1032D8000401DF500F0B0001C66F0001C651020147
:1032E800DF5DD8A02DD00001CE510E0D050EF326BE
:1032F800000EF422000EF324D96E040EF420DA6EC8
:103308000401DF380F0B0001C66F0201DF51000115
:10331800C65DD8A015D00001CE510E0D080EF326BB
:10332800000EF422000EF324D96E040EF420DA6E97
:10333800DECFCAF0DECFCBF0DECFCCF0DECFCDF0E3
:103348000001CE2B0001CE510201ED5DD8B075D73A
:10335800CAC0C6F0CBC0C7F0CCC0C8F0CDC0C9F059
:103368000C0ED8900001C637C737C837C937E82EC2
:10337800F8D7000E0001C6250001646F200E000179
:10338800C7210001656F030E0001C8210001666FA7
:10339800000E0001C9210001676F7D0E0001686FF2
:1033A800000E696F000E6A6F000E6B6F99EC3FF0AC
:1033B80064C071F065C072F066C073F067C074F0E5
:1033C8000201EA5170EC4AF00201EA5106EC42F0BF
:1033D800120004EC51F00101865101018711D8B4A3
:1033E8001200000E0001676F000E0001686F000EEA
:1033F8000001696F010E00016A6F01D81200050013
:10340800FA6E01018651FD6E8751FE6EFF6AFA5011
:1034180012000101865101018711D8B41200000E73
:103428000001676F000E0001686F000E0001696FF0
:10343800020E00016A6F01D812000500FA6E010140
:103448008651FD6E8751FE6EFF6AFA501200000E1B
:103458000001B96FB4C0BAF0B5C0BBF099D1020190
:10346800A751020D000E0001B76F020E0001B86FE0
:10347800A80E0001B727000EB823F3500001B727A4
:10348800F4500001B823010E0001B725D96E000ED3
:103498000001B821DA6E0201DF900201A751020D86
:1034A800000E0001B76F020E0001B86FA80E0001F0
:1034B800B727000EB823F3500001B727F4500001D6
:1034C800B823010E0001B725D96E000E0001B821FE
:1034D800DA6E0201DF920201A751020D000E00010F
:1034E800B76F020E0001B86FA80E0001B727000ED3
:1034F800B823F3500001B727F4500001B823010E98
:103508000001B725D96E000E0001B821DA6E02015C
:10351800DF940201A751020D000E0001B76F020EE1
:103528000001B86FA80E0001B727000EB823F350AA
:103538000001B727F4500001B823010E0001B72598
:10354800D96E000E0001B821DA6E0201DF96020181
:10355800A751020D000E0001B76F020E0001B86FEF
:10356800A80E0001B727000EB823F3500001B727B3
:10357800F4500001B823010E0001B725D96E000EE2
:103588000001B821DA6E0201DF980201A751020D8D
:10359800000E0001B76F020E0001B86FA80E0001FF
:1035A800B727000EB823F3500001B727F4500001E5
:1035B800B823010E0001B725D96E000E0001B8210D
:1035C800DA6E0201DF9A0201A751020D000E000116
:1035D800B76F020E0001B86FA80E0001B727000EE2
:1035E800B823F3500001B727F4500001B823010EA7
:1035F8000001B725D96E000E0001B821DA6E02016C
:10360800DF9C0201A751020D000E0001B76F020EE8
:103618000001B86FA80E0001B727000EB823F350B9
:103628000001B727F4500001B823010E0001B725A7
:10363800D96E000E0001B821DA6E0201DF9EBAC011
:10364800D9FFBBC0DAFF0201A751020DA80EF3246F
:10365800E96E020EF420EA6EDFCFEFFF69D0BAC040
:1036680064F0BBC065F03EEC4EF064C0BAF065C0D3
:10367800BBF052D0BAC073F0BBC074F0EDEC1BF0D5
:1036880073C0BAF074C0BBF071D0BAC064F0BBC0EC
:1036980065F0A5EC48F064C0BAF065C0BBF066D030
:1036A800BAC0AAF0BBC0ABF032EC22F0AAC0BAF0A4
:1036B800ABC0BBF05BD0BAC064F0BBC065F0DCEC5B
:1036C80051F064C0BAF065C0BBF050D0BAC0AAF0DF
:1036D800BBC0ABF0C1EC20F0AAC0BAF0ABC0BBF0E5
:1036E80045D0BAC06BF0BBC06CF0F8EC4EF06BC0C4
:1036F800BAF06CC0BBF03AD0010E0001B96F0001FE
:10370800B651010DF3500001B4250001BA6FF45011
:103718000001B5210001BB6F0201A751020DA80EDF
:10372800F324D96E020EF420DA6EFF0EDF6E1ED07F
:10373800BAC0D9FFBBC0DAFF0001BA4BBB2BDF50C0
:10374800020AD8B48CD7010AD8B494D7070AD8B4D7
:103758009CD7010AD8B4A4D7030AD8B4ACD7010AB5
:10376800D8B4B4D70F0AD8B4BCD7C6D70201A7516A
:10377800020DA80EF324D96E020EF420DA6EDE28AC
:10378800D8B406D0100E0201A76102D00201A72BFF
:103798000001B651010DB4C0B7F0B5C0B8F0F35090
:1037A8000001B727F4500001B8230001B751000108
:1037B800BA5D0001B8510001BB59D8B005D000016D
:1037C800B9510001D8B44BD6BAC0B4F0BBC0B5F0FB
:1037D800120073C0D9FF74C0DAFFDF500F0B00016D
:1037E800796F73C0D9FF74C0DAFFDF500001756FBD
:1037F800000175390F0B0F0B00017C6F0001734B33
:10380800742B73C0D9FF74C0DAFFDECF77F0DDCF39
:1038180078F0020E000173250001736F000E00019D
:1038280074210001746F73C07AF074C07BF00001DA
:10383800734B742B020102AD1BD17AC0D9FF7BC038
:10384800DAFF0001DF38070B23EC4FF00009D8A49A
:1038580027D077C064F078C065F0FAEC46F000092C
:10386800D8A41ED00201A751020D000E0001756FE9
:10387800020E0001766FA80E00017527000E762350
:10388800F35000017527F45000017623010E000162
:103898007525D96E000E00017621DA6E0201DF80EF
:1038A80000017C5192EC50F00009D8A42AD0020102
:1038B800EB5100017C5DD8A024D000017C510201AD
:1038C800EC5DD8A01ED00201A751020D000E000128
:1038D800756F020E0001766FA80E00017527000EA5
:1038E8007623F35000017527F45000017623010E6A
:1038F80000017525D96E000E00017621DA6E0201ED
:10390800DF82000179516FEC4EF00009D8A41ED077
:103918000201A751020D000E0001756F020E000191
:10392800766FA80E00017527000E7623F35000016C
:103938007527F45000017623010E00017525D96E14
:10394800000E00017621DA6E0201DF840201A75120
:10395800020D000E0001756F020E0001766FA80EB1
:1039680000017527000E7623F35000017527F450E7
:1039780000017623010E00017525D96E000E0001A5
:103988007621DA6E0201DFA4CDD00201A751020D23
:10399800000E0001756F020E0001766FA80E00017F
:1039A8007527000E7623F35000017527F4500001A7
:1039B8007623010E00017525D96E000E00017621CF
:1039C800DA6E0201DFA2AED00201A751020D000E8D
:1039D8000001756F020E0001766FA80E00017527B1
:1039E800000E7623F35000017527F450000176236A
:1039F800010E00017525D96E000E00017621DA6EE0
:103A08000201DFA08FD077C070F078C071F07AC063
:103A1800D9FF7BC0DAFF0001DF38070B0001726FA6
:103A280083EC50F000017951D7EC51F00201038981
:103A380000017C51E1EC51F07AC0D9FF7BC0DAFF7C
:103A48000001DF500F0B0009D8A402D0000E0BD0E4
:103A58007AC0D9FF7BC0DAFF0001DF500F0B0001ED
:103A6800756F000175050201D66F0201038B5AD0EC
:103A78000201A751020D000E0001756F020E000130
:103A8800766FA80E00017527000E7623F35000010B
:103A98007527F45000017623010E00017525D96EB3
:103AA800000E00017621DA6E0201DF900201A751B3
:103AB800020D000E0001756F020E0001766FA80E50
:103AC80000017527000E7623F35000017527F45086
:103AD80000017623010E00017525D96E000E000144
:103AE8007621DA6E0201DF920201A751020D000E63
:103AF8000001756F020E0001766FA80E0001752790
:103B0800000E7623F35000017527F4500001762348
:103B1800010E00017525D96E000E00017621DA6EBE
:103B28000201DF9473C073F074C074F012000001D6
:103B380020EE0DF06451D9266551DA22DF500001DC
:103B4800666F00016651010D670EF324F66EFE0ED6
:103B5800F420F76EF86A000EF8220800F5CF67F037
:103B680064C0D9FF65C0DAFF00016751DF1A0001A0
:103B780020EE0EF06451D9266551DA22DF5000019B
:103B8800666F00016651010D670EF324F66EFE0E96
:103B9800F420F76EF86A000EF8220800F5CF67F0F7
:103BA800000120EE01F06451D9266551DA220001A6
:103BB8006751DF1A000120EE0FF06451D9266551D4
:103BC800DA22DF500001666F00016651010D670EB1
:103BD800F324F66EFE0EF420F76EF86A000EF82253
:103BE8000800F5CF67F0000120EE02F06451D926F5
:103BF8006551DA2200016751DF1A000120EE0CF04E
:103C08006451D9266551DA22DF500001666F000140
:103C18006651010D670EF324F66EFE0EF420F76E62
:103C2800F86A000EF8220800F5CF67F0000120EED0
:103C380003F06451D9266551DA2200016751DF1A71
:103C480064C0D9FF65C0DAFF4A50DF1A7F0E4A64A4
:103C580012D01B0E4AC066F00001676BD8900001B5
:103C680066376737000166190001686F0001675100
:103C78000001696F08D0D8904A340001686F0001CC
:103C8800696B0001693768C04AF064C0D9FF65C034
:103C9800DAFFDF500001666F000120EE04F0645186
:103CA800D9266551DA2200016651DF1A000120EE9B
:103CB80001F06451D9266551DA22DF500001666FA0
:103CC800000120EE05F06451D9266551DA22000181
:103CD8006651DF1A000120EE02F06451D9266551C1
:103CE800DA22DF500001666F000120EE06F0645111
:103CF800D9266551DA2200016651DF1A000120EE4B
:103D080003F06451D9266551DA22DF500001666F4D
:103D1800000120EE07F06451D9266551DA2200012E
:103D28006651DF1A000120EE04F06451D92665516E
:103D3800DA22DF500001666F000120EE08F06451BE
:103D4800D9266551DA2200016651DF1A000120EEFA
:103D580005F06451D9266551DA22DF500001666FFB
:103D6800000120EE09F06451D9266551DA220001DC
:103D78006651DF1A000120EE06F06451D92665511C
:103D8800DA22DF500001666F000120EE0AF064516C
:103D9800D9266551DA2200016651DF1A000120EEAA
:103DA80007F06451D9266551DA22DF500001666FA9
:103DB800000120EE0BF06451D9266551DA2200018A
:103DC8006651DF1A000120EE08F06451D9266551CA
:103DD800DA22DF500001666F000120EE0CF064511A
:103DE800D9266551DA2200016651DF1A000120EE5A
:103DF80009F06451D9266551DA22DF500001666F57
:103E0800000120EE0DF06451D9266551DA22000137
:103E18006651DF1A000120EE0AF06451D926655177
:103E2800DA22DF500001666F000120EE0EF06451C7
:103E3800D9266551DA2200016651DF1A000120EE09
:103E48000BF06451D9266551DA22DF500001666F04
:103E5800000120EE0FF06451D9266551DA220001E5
:103E68006651DF1A12000A0EE126000EE222FF0E4A
:103E7800566EFF0E576EFF0E586EFF0E596EFA0EF5
:103E880056C0E3FFFB0E57C0E3FFFC0E58C0E3FF2C
:103E9800FD0E59C0E3FFFF0EE36AFE0EE36AFE0E55
:103EA800E3500E0D040EF324D96E040EF420DA6EDE
:103EB800DE04D8A4B4D0FE0EE3500E0D080EF32491
:103EC800D96E040EF420DA6EDE50DE10DE10DE103D
:103ED800D8B4A5D0FE0EE3500E0D080EF324D96E0B
:103EE800040EF420DA6EDE500201C85DDE500201D5
:103EF800C959DE500201CA59DE500201CB59D8B067
:103F080033D0FE0EE3500E0D080EF324D96E040EC6
:103F1800F420DA6EDECF56F0DECF57F0DECF58F061
:103F2800DECF59F00201C851565C526E0201C951E8
:103F38005758536E0201CA515858546E0201CB515A
:103F48005958556EFE0EE3500E0D080EF324D96E27
:103F5800040EF420DA6E52C0DEFF53C0DEFF54C0F8
:103F6800DEFF55C0DEFF0DD0FE0EE3500E0D080E2D
:103F7800F324D96E040EF420DA6EDE6ADE6ADE6A95
:103F8800DD6AFE0EE3500E0D080EF324D96E040E02
:103F9800F420DA6EFA0EE3CF4EF0DE504E5CFB0EE4
:103FA800E3CF4EF0DE504E58FC0EE3CF4EF0DE501D
:103FB8004E58FD0EE3CF4EF0DE504E58D8A02FD00D
:103FC800FE0EE3500E0D080EF324D96E040EF420F5
:103FD800DA6EDE50DE10DE10DE10D8B420D0FE0E11
:103FE800E3500E0D080EF324D96E040EF420DA6E99
:103FF800DECF56F0DECF57F0DECF58F0DECF59F0E7
:10400800FA0E56C0E3FFFB0E57C0E3FFFC0E58C084
:10401800E3FFFD0E59C0E3FFFF0EE36AE32AFE0E3D
:10402800E32AFE0EE3CF4EF00F0E4E6438D7FF0E94
:10403800E304D8A49DD0E150FA0FD96EE250DA6EAD
:10404800FF0EDA22DECFC8F2DECFC9F2DECFCAF227
:10405800DECFCBF2FD0EE3500EE1FA0EE328FB0EA5
:10406800E3CF4EF0FF0E4E5AFC0EE3CF4EF00F0E8C
:104078004E5AD8A02BD0E150FA0FD96EE250DA6E22
:10408800FF0EDA22DECF64F0DECF65F0DECF66F019
:10409800DECF67F07D0E0001686F000E696F000EBD
:1040A8006A6F000E6B6F99EC3FF064C056F065C004
:1040B80057F066C058F067C059F00C0ED8905636C5
:1040C800573658365936E82EF9D72FD0FA0EE3CF9F
:1040D80056F0FB0EE3CF57F0FC0EE3CF58F0FD0E81
:1040E800E3CF59F00C0ED890563657365836593615
:1040F800E82EF9D756C064F057C065F058C066F08E
:1041080059C067F07D0E0001686F000E696F000EE0
:104118006A6F000E6B6F99EC3FF064C056F065C093
:1041280057F066C058F067C059F0F60E56C0E3FF66
:10413800F70E57C0E3FFF80E58C0E3FFF90E59C059
:10414800E3FFE150F60FD96EE250DA6EFF0EDA2285
:10415800DECF71F0DECF72F0DECF73F0DECF74F019
:104168000201E95170EC4AF00201E95106EC42F013
:10417800F50EE126FF0EE2221200000E0001AF6FDD
:10418800000EB06F000EB16F000EB26FAAC0D9FF5B
:10419800ABC0DAFFDF500001B36F0001AA4BAB2BB5
:1041A800AAC0D9FFABC0DAFFFF0EDE140001AF6F63
:1041B800FF0EDE140001B06FFF0EDE140001B16FB8
:1041C800000EDE140001B26FAFC09EF0B0C09FF0C9
:1041D800B1C0A0F0B2C0A1F0640E0001A26F000E41
:1041E800A36F000EA46F000EA56FBFEC46F09EC033
:1041F800AFF09FC0B0F0A0C0B1F0A1C0B2F0030E04
:104208000001AA250001AA6F000E0001AB210001E0
:10421800AB6FAAC0D9FFABC0DAFFDF500001AE6FA9
:104228000001AA4BAB2B000E0001646F0001B351D3
:1042380057EC4EF00009D8A45AD0AFC064F0B0C013
:1042480065F0B1C066F0B2C067F084EC45F00009D3
:10425800D8B40AD00001AF510001B0110001B1116A
:104268000001B211D8A41ED00201A751020D000E00
:104278000001AC6F020E0001AD6FA80E0001AC2763
:10428800000EAD23F3500001AC27F4500001AD231C
:10429800010E0001AC25D96E000E0001AD21DA6EC9
:1042A8000201DF8E0001AE511CEC4AF00009D8A4CF
:1042B8001ED00201A751020D000E0001AC6F020EC4
:1042C8000001AD6FA80E0001AC27000EAD23F3501E
:1042D8000001AC27F4500001AD23010E0001AC250C
:1042E800D96E000E0001AD21DA6E0201DF8C0201E9
:1042F800A751020D000E0001AC6F020E0001AD6F58
:10430800A80E0001AC27000EAD23F3500001AC2726
:10431800F4500001AD23010E0001AC25D96E000E4A
:104328000001AD21DA6E0201DFAE93D00201A75180
:10433800020D000E0001AC6F020E0001AD6FA80E59
:104348000001AC27000EAD23F3500001AC27F45058
:104358000001AD23010E0001AC25D96E000E00014D
:10436800AD21DA6E0201DFAC74D0100E0201DA6101
:1043780035D00001AF510001B0110001B1110001A9
:10438800B211D8B423D0AFC064F0B0C065F0B1C0EA
:1043980066F0B2C067F00001B351A7EC4BF0AEC0B5
:1043A80064F00001B35178EC31F0010E0001656F43
:1043B8002E0E646F0001B351CAEC4BF0010E0001E0
:1043C800646F0001B351FFEC2FF041D0000E0001E3
:1043D800686F0001B35138EC49F039D00001AF5192
:1043E8000001B0110001B1110001B211D8B427D0F9
:1043F800AFC064F0B0C065F0B1C066F0B2C067F09D
:104408000001B351100FA7EC4BF0AEC064F00001EF
:10441800B351100F78EC31F0010E0001656F2E0ECC
:10442800646F0001B351100FCAEC4BF0010E00018C
:10443800646F0001B351100FFFEC2FF008D0000E8D
:104448000001686F0001B351100F38EC49F0020108
:104458000387AAC0AAF0ABC0ABF01200000E00019F
:10446800AE6F000EAF6F000EB06F000EB16FAAC036
:10447800D9FFABC0DAFFDF500001B26F0001AA4BD1
:10448800AB2BAAC0D9FFABC0DAFFFF0EDE140001C8
:10449800AE6FFF0EDE140001AF6FFF0EDE140001D9
:1044A800B06F000EDE140001B16FAEC09EF0AFC059
:1044B8009FF0B0C0A0F0B1C0A1F0640E0001A26FDF
:1044C800000EA36F000EA46F000EA56FBFEC46F0A0
:1044D8009EC0AEF09FC0AFF0A0C0B0F0A1C0B1F0D8
:1044E800030E0001AA250001AA6F000E0001AB21EE
:1044F8000001AB6FAEC064F0AFC065F0B0C066F04D
:10450800B1C067F084EC45F00009D8A41ED00201C0
:10451800A751020D000E0001AC6F020E0001AD6F35
:10452800A80E0001AC27000EAD23F3500001AC2704
:10453800F4500001AD23010E0001AC25D96E000E28
:104548000001AD21DA6E0201DF860001B2510F0BC6
:1045580092EC50F00009D8A41ED00201A751020D18
:10456800000E0001AC6F020E0001AD6FA80E000135
:10457800AC27000EAD23F3500001AC27F450000126
:10458800AD23010E0001AC25D96E000E0001AD214E
:10459800DA6E0201DF880001B239070B74EC50F0C3
:1045A8000009D8A41ED00201A751020D000E000177
:1045B800AC6F020E0001AD6FA80E0001AC27000E13
:1045C800AD23F3500001AC27F4500001AD23010ED8
:1045D8000001AC25D96E000E0001AD21DA6E020192
:1045E800DF8A0201A751020D000E0001AC6F020E16
:1045F8000001AD6FA80E0001AC27000EAD23F350EB
:104608000001AC27F4500001AD23010E0001AC25D8
:10461800D96E000E0001AD21DA6E0201DFA854D078
:104628000201A751020D000E0001AC6F020E00013D
:10463800AD6FA80E0001AC27000EAD23F3500001AA
:10464800AC27F4500001AD23010E0001AC25D96E52
:10465800000E0001AD21DA6E0201DFA635D002019D
:10466800A751020D000E0001AC6F020E0001AD6FE4
:10467800A80E0001AC27000EAD23F3500001AC27B3
:10468800F4500001AD23010E0001AC25D96E000ED7
:104698000001AD21DA6E0201DFAA16D00001B2399D
:1046A800070B0201EF6FAEC064F0AFC065F0B0C099
:1046B80066F0B1C067F00001B2510F0B0001686FDE
:1046C8001CEC51F00201038FAAC0AAF0ABC0ABF0FA
:1046D80012000001AC6F210E0001AC19D8A4120021
:1046E800030E0001B16F000E0001B26F040E00014D
:1046F800B26501D01ED1000E0001AD6F000EAE6F85
:10470800000EAF6F000EB06FAD0E0001646F000EAB
:104718000001656F0001B251030D0D0EF326000E66
:10472800F422F3500001AA250001666FF45000013D
:10473800AB210001676F000E0001696F030E686FFF
:1047480007EC49F0ADC09EF0AEC09FF0AFC0A0F03E
:10475800B0C0A1F0640E0001A26F000EA36F000E9E
:10476800A46F000EA56FBFEC46F09EC0ADF09FC0D1
:10477800AEF0A0C0AFF0A1C0B0F00001AD51000193
:10478800AE110001AF110001B011D8B4C6D0ADC050
:1047980064F0AEC065F0AFC066F0B0C067F084ECFE
:1047A80045F00009D8A4C2D00001B2510001B125DA
:1047B8000001646F0001656B00016537000E0001A0
:1047C800676F0E0E666FA1EC4DF0000E00016425B8
:1047D800D96E040E00016521DA6EADC0DEFFAEC0F1
:1047E800DEFFAFC0DEFFB0C0DEFF0001B251000146
:1047F800B1250001646F0001656B00016537000E8B
:104808000001676F0E0E666FA1EC4DF0050E0001FA
:104818006427000E00016523000E00016425D96E8F
:10482800040E00016521DA6E0401DF500F0B5009F8
:10483800DF6E0001B2510001B1250001646F000173
:10484800656B00016537000E0001676F0E0E666F1D
:10485800A1EC4DF0050E00016427000E0001652350
:10486800000E00016425D96E040E00016521DA6E80
:104878000401DF90DF92DF94DF960001B25100015E
:10488800B1250001646F0001656B00016537000EFA
:104898000001676F0E0E666FA1EC4DF0060E000169
:1048A8006427000E00016523000E00016425D96EFF
:1048B800040E00016521DA6EE70EDE6E030EDD6E72
:1048C8000001B2510001B1250001646F0001656B60
:1048D80000016537000E0001676F0E0E666FA1ECD0
:1048E8004DF00D0E00016427000E00016523000E37
:1048F80000016425D96E040E00016521DA6EFF0EF1
:10490800DF6E010E0001686F0001B2510001B12590
:1049180038EC49F00201038709D0000E0001686FE6
:104928000001B2510001B12538EC49F00001B22B69
:10493800DDD60201038712000101AFA506D0800E63
:104948000001B66F030EB56F1200AFC1B7F0030ECA
:104958000001B717D8B406D0800E0001B66F040E58
:10496800B56F12000001B5510001B611D8A408D0E6
:10497800000E0001AB6F040EAA6FFBEC0BF006D023
:10498800B5C0AAF0B6C0ABF0FBEC0BF00101A40572
:10499800D8A413D0010E0001666F220E36EC50F039
:1049A800000E0001666F400E36EC50F0000E00015C
:1049B800666F410E36EC50F016D0C0C166F0120E8C
:1049C80036EC50F0C1C166F0130E36EC50F0000E14
:1049D8000001666F400E36EC50F0000E0001666F65
:1049E800410E36EC50F00101AF83E70E0101AF171D
:1049F8000001B5510001B611D8A409D0A4C169F0CD
:104A0800000E00016A6F050E70EC35F04FD0010101
:104A1800A405D8A40AD0010E0001696F000E000198
:104A28006A6F060E70EC35F041D0000E0001696F18
:104A3800000E00016A6F050E70EC35F00001B551EB
:104A48000001B76F0001B6510001B86F0001B96BE2
:104A58000001BA6B0C0ED8900001B737B837B937D8
:104A6800BA37E82EF8D7B7C064F0B8C065F0B9C057
:104A780066F0BAC067F07D0E0001686F000E696FBE
:104A8800000E6A6F000E6B6F99EC3FF064C071F016
:104A980065C072F066C073F067C074F00101B4516C
:104AA80070EC4AF00101B45106EC42F00101B65134
:104AB8000101B7110101B8110101B911D8B469D0C8
:104AC8000101B9510AE10101B629FF0E0101B759E7
:104AD8000F0E0101B859D8A020D0B6C164F0B7C1F3
:104AE80065F0B8C166F0B9C167F07D0E0001686F66
:104AF800000E696F000E6A6F000E6B6F99EC3FF045
:104B08000C0ED89000016437000165370001663744
:104B180000016737E82EF5D724D0B6C1B7F0B7C182
:104B2800B8F0B8C1B9F0B9C1BAF00C0ED89000010C
:104B3800B737B837B937BA37E82EF8D7B7C064F0FF
:104B4800B8C065F0B9C066F0BAC067F07D0E000164
:104B5800686F000E696F000E6A6F000E6B6F99EC3C
:104B68003FF064C0BBF065C0BCF066C0BDF067C074
:104B7800BEF0BBC071F0BCC072F0BDC073F0BEC067
:104B880074F00101B55170EC4AF00101B55106EC21
:104B980042F0000E0001B66F000EB56F1200010161
:104BA800AFA506D0800E0001B66F030EB56F1200D8
:104BB800AFC1B8F0030E0001B817D8B406D0800E04
:104BC8000001B66F040EB56F12000101A451D8A4FC
:104BD8000AD0400E0001B76506D0800E0001B66FFE
:104BE800020EB56F12000101B35161EC4FF0000ED7
:104BF8000001AB6F040EAA6FFBEC0BF00101A405DA
:104C0800D8A429D0B7C066F0220E36EC50F00A0EB0
:104C18004DEC4FF00001C46FF00E0001C417000105
:104C2800C487C4C066F00A0E36EC50F0400E00018E
:104C3800666F400E36EC50F0000E0001666F410EB4
:104C480036EC50F0A4C169F0010E00016A6F010E44
:104C580070EC35F00CD0000E0001666F400E36EC9B
:104C680050F0000E0001666F410E36EC50F0010165
:104C7800A451D8A405D0B7C066F0000E36EC50F0A9
:104C880031EC52F0800EA0EC51F0000E0001C56F1F
:104C980010D00001C551010DF3500001B525D96EA2
:104CA800F4500001B621DA6EDF50A0EC51F000019B
:104CB800C52B0001B7510001C55DD8A0EAD72FEC7C
:104CC80052F00101AF81E70E0101AF17A4C169F0ED
:104CD800000E00016A6F030E70EC35F0000E000143
:104CE800BC6F000EBD6F0A0EBE6F000EBF6FBCC05A
:104CF80071F0BDC072F0BEC073F0BFC074F00101A6
:104D0800B35170EC4AF00101B35106EC42F00101D5
:104D1800B6510101B7110101B8110101B911D8B497
:104D280069D00101B9510AE10101B629FF0E01015B
:104D3800B7590F0E0101B859D8A020D0B6C164F0F8
:104D4800B7C165F0B8C166F0B9C167F07D0E000162
:104D5800686F000E696F000E6A6F000E6B6F99EC3A
:104D68003FF00C0ED8900001643700016537000150
:104D7800663700016737E82EF5D724D0B6C1B8F0FA
:104D8800B7C1B9F0B8C1BAF0B9C1BBF00C0ED89030
:104D98000001B837B937BA37BB37E82EF8D7B8C0EB
:104DA80064F0B9C065F0BAC066F0BBC067F07D0EAC
:104DB8000001686F000E696F000E6A6F000E6B6F5E
:104DC80099EC3FF064C0C0F065C0C1F066C0C2F0A5
:104DD80067C0C3F0C0C071F0C1C072F0C2C073F048
:104DE800C3C074F00101B55170EC4AF00101B5512E
:104DF80006EC42F0000E0001B66F000EB56F12000F
:104E08000001B56F0201F005D8B49AEC4AF0340EEF
:104E18000201F46F0201F45109EC52F0000E020194
:104E2800026F000E036F000E046F000E056F020183
:104E3800DD69000E0201DE6F000E0201C86F000E70
:104E4800C96F000ECA6F000ECB6F000E0201D56F3E
:104E5800000ED46F000E02010A6F000E0B6F000ED9
:104E68000C6F000E0D6F000E0201066F000E076F2B
:104E7800000E086F000E096F000E0201D36F000EBE
:104E8800D26F000E0201DC6F010EDB6F000E020113
:104E9800D16F000ED06F000E0201EE6F000E0201FE
:104EA800EF6F000E0201C86F000EC96F000ECA6FC7
:104EB800000ECB6F02010395000E0201026F000E77
:104EC800036F000E046F000E056F000E0201016FE4
:104ED800000E006F070E0201D76F000E0201D66F99
:104EE800010E0201D96F010E0201D86F0201E069BB
:104EF800B5C0A4F2000E0201126F100E0201ED6F90
:104F08000001B5510001D8A41FD0FF0E00017D6F2C
:104F1800050E00017E6FA00E00017F6F270E806FC7
:104F2800BE0E816F330E826F17EC28F056EC42F0FC
:104F3800000E02011C6F080E0201186FE60E196FB1
:104F4800D30E1A6F330E1ED0FF0E00017D6F050EB3
:104F580000017E6F200E00017F6FA20E806FD30EBE
:104F6800816F190E826F17EC28F0A6EC42F0000E44
:104F780002011C6F280E0201186F760E196FE80ED9
:104F88001A6F190E1B6F010E0201E16F000E02016C
:104F9800DF6FE0EC38F0000E0201A66F000EA56F7F
:104FA8001D0E0001646F020E0001656F000E000106
:104FB800676F000E666F000E0001696F690E686FFB
:104FC8000BEC4EF0030E0201956FE80E946F070E7E
:104FD8000201976FD00E966F130E0201996F880E1B
:104FE800986F170E02019B6F700E9A6F070E0201E1
:104FF800A16FD00EA06F200E0201A36F400E020118
:10500800A26F400E02019D6F000E9C6F400E0201C0
:105018009F6F000E9E6F000E0001AB6F000EAA6F0F
:10502800BCEC30F012007FC08CF180C08DF181C0E3
:105038008EF182C08FF1A80E0101906F610E916F01
:10504800000E926F000E936F500E0101946FC30E05
:10505800956F000E966F000E976F010E0101A46FF9
:10506800070E0101A66F010E0101A76F010E0101D4
:10507800AD6F000E0101AE6F000E0101996F080EB1
:10508800986F0C0E0101A56F010E0101A86F000EAB
:105098000101A96F000E0101AC6FC10E01019B6FE8
:1050A800940E01019C6FC10E01019D6F030E010159
:1050B800A36F340E01019A6F000E0101AF6F000E4D
:1050C8000101B06F7DC0B1F17EC0B2F1000E0101E7
:1050D800AB6F000EAA6F800E0101BE6F980E010122
:1050E800B66F3A0EB76F000EB86F000EB96F020EAA
:1050F8000101BF6F0B0E0101C06F120E0101C16FDC
:10510800000E0101BB6F000E0101BC6F0101BA5115
:10511800D8A42AD091EC43F00101B36F91EC43F08D
:105128000101B46F91EC43F00101B56FEA0E000183
:10513800646F990E0001656F000E0001666F010132
:10514800B451EDEC4BF0D80E0001646F950E0001E0
:10515800656F000E0001666F0101B551EDEC4BF073
:10516800010E0101BA6F0CD00101B35161EC4FF08F
:105178000101B45161EC4FF00101B55161EC4FF000
:1051880010EC4CF0000E0001696F010E00016A6F0F
:10519800010E70EC35F08CC171F08DC172F08EC1CA
:1051A80073F08FC174F064EC3AF0420E0001666F40
:1051B8003B0E36EC50F03B0E4DEC4FF00001836F88
:1051C800000183BBF8D7230E0001666F0C0E36EC86
:1051D80050F01E0E0001666F0D0E36EC50F0AA0E50
:1051E8000001666F1F0E36EC50F08F0E0001666FDF
:1051F800350E36EC50F0FF0E0001666F320E36ECBD
:1052080050F0400E0001666F310E36EC50F0010E82
:105218000001696F010E00016A6F000E70EC35F035
:10522800FF0E0001666F230E36EC50F0420E4DEC77
:105238004FF00101BD6F1200000E0001EE6FE00E8D
:105248000001646F040E0001656F000E0001676FB6
:10525800000E666F010E0001696F0F0E686F0BEC90
:105268004EF00001EC9BEC9DEC9FFC0E0001EC174E
:105278000001EC95EC97EC990001EE51010DE00E60
:10528800F324D96E040EF420DA6EECC0DFFF0001BF
:10529800EE2B000E0001ED6F070E0001ED6501D049
:1052A8002ED00001ED510001E46FE56B0001E41F11
:1052B800E51FE44BE52B070E0001E427000EE5236C
:1052C800520E0001E425D96E020E0001E521DA6EC6
:1052D8000001ED51EEC0E6F00001E76B0001E627A2
:1052E800000EE723E00E0001E625E96E040E00013A
:1052F800E721EA6EDFCFEFFF0001ED2BCDD70001EC
:10530800EE51080F0001EE6F000E0001ED6F070E61
:105318000001ED6501D02ED00001ED510001E46FD0
:10532800E56B0001E41FE51FE44BE52B070E0001C8
:10533800E427000EE5235A0E0001E425D96E020E7B
:105348000001E521DA6E0001ED51EEC0E6F0000142
:10535800E76B0001E627000EE723E00E0001E625D3
:10536800E96E040E0001E721EA6EDFCFEFFF0001CE
:10537800ED2BCDD70001EE51080F0001EE6FFF0EA7
:105388000001B26FB16905EC50F0B1C0D2F2B2C001
:10539800D3F20001EE51010DE00EF3240001646F19
:1053A800040EF4200001656FD20E0001666F020E34
:1053B8000001676F000E0001696F020E686F07EC4D
:1053C80049F00001EE51020F0001EE6F420E00019C
:1053D800DB6F020E0001DC6FE00E0001DD6F040ED2
:1053E8000001DE6FEEC0DFF06BEC47F0DBC0E8F0E9
:1053F800DCC0E9F0DDC0EAF0DEC0EBF00001EE5100
:10540800010DE00EF3240001646F040EF420000186
:10541800656FE80E0001666F000E0001676F000EF1
:105428000001696F040E686F07EC49F00001EE5146
:10543800040F0001EE6F0001EE511200000E000192
:10544800B86F000E0001B96F000E0001BA6FA7C057
:1054580064F00001656B000E0001676F100E666F47
:10546800DCEC3EF0000164510001B86F010E000150
:10547800B96F76D0A9C06EF0AAC06FF0ABC070F05B
:10548800ACC071F0B9C072F0010E0001736FB2C008
:1054980074F00001A8510FEC36F0C20E0001916FB4
:1054A800010E0001926FADC093F0AEC094F013EC02
:1054B8004DF0000E0001BA6F0F0E0001BA6501D061
:1054C8004DD00001AF51010DF3500001B025D96E48
:1054D800F4500001B121DA6EF00E0001B36FFF0E37
:1054E8000001B46F0001B9510001B56FB66B00013E
:1054F800B53BB63BF00EB617B5510F0BB613F00E11
:10550800B5170001BA510001B527000EB6230001F6
:10551800B3510001B5270001B4510001B6230001C1
:10552800B5510001A525E96E0001B6510001A6217B
:10553800EA6EEF500001B76F0001BA51010DC20EBB
:10554800F324E96E010EF420EA6EEF500001B7195A
:10555800DF6E0001AF2B0001BA2BAED70001B92BCB
:105568000001B9510001B85DD8B084D7A7C0B3F025
:105578000F0E0001B317D8B41200A9C06EF0AAC06C
:105588006FF0ABC070F0ACC071F0B9C072F0010E32
:105598000001736FB2C074F00001A8510FEC36F02F
:1055A800C20E0001916F010E0001926FADC093F021
:1055B800AEC094F013EC4DF0000E0001BA6F2FD07E
:1055C8000001AF51010DF3500001B025D96EF45020
:1055D8000001B121DA6E0001B851100D0001BA5175
:1055E800F326000EF422F3500001A525E96EF450CD
:1055F8000001A621EA6EEF500001B36F0001BA5115
:10560800010DC20EF324E96E010EF420EA6EEF508C
:105618000001B319DF6E0001AF2B0001BA2BA7C040
:10562800B3F00F0E0001B3170001B3510001BA5DCA
:10563800D8B01200C5D775EC4FF064C044F065C00F
:1056480045F04D04D8A492D0000E4D6E3CC070F0C9
:105658003DC071F03EC072F03FC073F00001701F92
:10566800711F721F731F702B000E71237223732317
:105678000001F9510001746F0001FA510001756FC2
:105688000001766B0001776B0001741F751F761F90
:10569800771F742B000E752376237723445000015F
:1056A80074250001786F4550000175210001796F5C
:1056B800000E0001762100017A6F000E00017721AB
:1056C80000017B6F000170510001782500017C6F9B
:1056D800000171510001792100017D6F00017251B3
:1056E80000017A2100017E6F0001735100017B21C6
:1056F80000017F6F405000017C250001806F415000
:1057080000017D210001816F425000017E210001CE
:10571800826F435000017F210001836F000E00015A
:1057280080250101826F000E000181210101836F34
:10573800010E000182210101846F000E0001832106
:105748000101856F44C03CF045C03DF03E6A3F6AA8
:10575800000E406E000E416E000E426E000E436E4B
:10576800000E0001FA6F000EF96F57D03CC070F0C0
:105778003DC071F03EC072F03FC073F00001701F71
:10578800711F721F731F702B000E712372237323F6
:10579800F9C074F0FAC075F00001741F751F744BDE
:1057A800752B4450000174274550000175230001F2
:1057B8007451000170250001766F000175510001D8
:1057C80071210001776F000E000172210001786FCE
:1057D800000E000173210001796F40500001762509
:1057E8000101826F4150000177210101836F42500E
:1057F800000178210101846F4350000179210101E2
:10580800856F010182513C26010183513D2201012E
:1058180084513E22010185513F2282C16CF083C12F
:105828006DF084C16EF085C16FF012000001A269AD
:10583800A369A469A569000E0001A66F85D00001BF
:10584800A6510E0D040EF326000EF422000EF324CA
:10585800D96E040EF420DA6EDE04D8A473D00001E9
:10586800A6510E0D080EF326000EF422000EF324A6
:10587800D96E040EF420DA6EDE50DE10DE10DE1073
:10588800D8B460D00001A6510E0D080EF326000E04
:10589800F422000EF324D96E040EF420DA6EDE50E2
:1058A8000001A25DDE500001A359DE500001A45999
:1058B800DE500001A559D8A045D00001A6510E0D13
:1058C800050EF326000EF422000EF324D96E040E02
:1058D800F420DA6E0401DF500F0B00019E6F000107
:1058E8009E510201DF5DD8A02DD00001A6510E0DFA
:1058F800050EF326000EF422000EF324D96E040ED2
:10590800F420DA6E0401DF380F0B00019E6F0201EC
:10591800DF5100019E5DD8A015D00001A6510E0DE3
:10592800080EF326000EF422000EF324D96E040E9E
:10593800F420DA6EDECFA2F0DECFA3F0DECFA4F043
:10594800DECFA5F00001A62B0001A6510201ED5DF6
:10595800D8B075D702010251F00B0609026FA2C038
:105968009EF0A3C09FF0A4C0A0F0A5C0A1F00C0EAB
:10597800D89000019E379F37A037A137E82EF8D777
:105988009EC064F09FC065F0A0C066F0A1C067F03B
:105998007D0E0001686F000E696F000E6A6F000EC1
:1059A8006B6F99EC3FF064C071F065C072F066C02F
:1059B80073F067C074F00201E65170EC4AF002011E
:1059C800E65106EC42F01200000120EE01F06451AD
:1059D800D9266551DA22DF500001666F000120EEFA
:1059E80005F06451D9266551DA22000100EE01F074
:1059F8006451E9266551EA22DFCFEFFF000120EE6E
:105A080009F06451D9266551DA22000100EE05F04B
:105A18006451E9266551EA22DFCFEFFF000120EE4D
:105A28000DF06451D9266551DA22000100EE09F023
:105A38006451E9266551EA22DFCFEFFF000120EE2D
:105A48000DF06451D9266551DA2266C0DFFF0001E6
:105A580020EE02F06451D9266551DA22DF500001A8
:105A6800666F000120EE0AF06451D9266551DA22EA
:105A7800000100EE02F06451E9266551EA22DFCF09
:105A8800EFFF000120EE0AF06451D9266551DA22B1
:105A980066C0DFFF000120EE0EF06451D926655183
:105AA800DA22DF500001666F000120EE06F0645133
:105AB800D9266551DA22000100EE0EF06451E9267C
:105AC8006551EA22DFCFEFFF000120EE06F06451B6
:105AD800D9266551DA2266C0DFFF000120EE03F007
